{
  "contractName": "Bidding",
  "abi": [
    {
      "inputs": [
        {
          "internalType": "address payable",
          "name": "layerAaddress",
          "type": "address"
        },
        {
          "internalType": "address payable",
          "name": "layerBaddress",
          "type": "address"
        },
        {
          "internalType": "address payable",
          "name": "layerCaddress",
          "type": "address"
        }
      ],
      "stateMutability": "nonpayable",
      "type": "constructor"
    },
    {
      "inputs": [],
      "name": "showBids",
      "outputs": [
        {
          "internalType": "string[]",
          "name": "",
          "type": "string[]"
        }
      ],
      "stateMutability": "view",
      "type": "function",
      "constant": true
    },
    {
      "inputs": [
        {
          "internalType": "string",
          "name": "bidId",
          "type": "string"
        }
      ],
      "name": "bid",
      "outputs": [],
      "stateMutability": "payable",
      "type": "function",
      "payable": true
    }
  ],
  "bytecode": "0x60806040523480156200001157600080fd5b50604051620012673803806200126783398181016040528101906200003791906200022f565b826000806101000a81548173ffffffffffffffffffffffffffffffffffffffff021916908373ffffffffffffffffffffffffffffffffffffffff16021790555081600160006101000a81548173ffffffffffffffffffffffffffffffffffffffff021916908373ffffffffffffffffffffffffffffffffffffffff16021790555080600260006101000a81548173ffffffffffffffffffffffffffffffffffffffff021916908373ffffffffffffffffffffffffffffffffffffffff16021790555082600360006101000a81548173ffffffffffffffffffffffffffffffffffffffff021916908373ffffffffffffffffffffffffffffffffffffffff16021790555081600460006101000a81548173ffffffffffffffffffffffffffffffffffffffff021916908373ffffffffffffffffffffffffffffffffffffffff16021790555080600560006101000a81548173ffffffffffffffffffffffffffffffffffffffff021916908373ffffffffffffffffffffffffffffffffffffffff1602179055505050506200028b565b600080fd5b600073ffffffffffffffffffffffffffffffffffffffff82169050919050565b6000620001f782620001ca565b9050919050565b6200020981620001ea565b81146200021557600080fd5b50565b6000815190506200022981620001fe565b92915050565b6000806000606084860312156200024b576200024a620001c5565b5b60006200025b8682870162000218565b93505060206200026e8682870162000218565b9250506040620002818682870162000218565b9150509250925092565b610fcc806200029b6000396000f3fe6080604052600436106100295760003560e01c806314d2687c1461002e5780637aef951c14610059575b600080fd5b34801561003a57600080fd5b50610043610075565b6040516100509190610a91565b60405180910390f35b610073600480360381019061006e9190610bfc565b610464565b005b606080600033905060008060009054906101000a900473ffffffffffffffffffffffffffffffffffffffff1673ffffffffffffffffffffffffffffffffffffffff1663b2e1091e836040518263ffffffff1660e01b81526004016100d99190610c86565b600060405180830381865afa1580156100f6573d6000803e3d6000fd5b505050506040513d6000823e3d601f19601f8201168201806040525081019061011f9190610d11565b51146101c55760008054906101000a900473ffffffffffffffffffffffffffffffffffffffff1673ffffffffffffffffffffffffffffffffffffffff1663b81c78ec6040518163ffffffff1660e01b8152600401600060405180830381865afa158015610190573d6000803e3d6000fd5b505050506040513d6000823e3d601f19601f820116820180604052508101906101b99190610e40565b91508192505050610461565b6000600160009054906101000a900473ffffffffffffffffffffffffffffffffffffffff1673ffffffffffffffffffffffffffffffffffffffff1663b2e1091e836040518263ffffffff1660e01b81526004016102229190610c86565b600060405180830381865afa15801561023f573d6000803e3d6000fd5b505050506040513d6000823e3d601f19601f820116820180604052508101906102689190610d11565b511461031057600160009054906101000a900473ffffffffffffffffffffffffffffffffffffffff1673ffffffffffffffffffffffffffffffffffffffff1663b81c78ec6040518163ffffffff1660e01b8152600401600060405180830381865afa1580156102db573d6000803e3d6000fd5b505050506040513d6000823e3d601f19601f820116820180604052508101906103049190610e40565b91508192505050610461565b6000600260009054906101000a900473ffffffffffffffffffffffffffffffffffffffff1673ffffffffffffffffffffffffffffffffffffffff1663b2e1091e836040518263ffffffff1660e01b815260040161036d9190610c86565b600060405180830381865afa15801561038a573d6000803e3d6000fd5b505050506040513d6000823e3d601f19601f820116820180604052508101906103b39190610d11565b511461045b57600260009054906101000a900473ffffffffffffffffffffffffffffffffffffffff1673ffffffffffffffffffffffffffffffffffffffff1663b81c78ec6040518163ffffffff1660e01b8152600401600060405180830381865afa158015610426573d6000803e3d6000fd5b505050506040513d6000823e3d601f19601f8201168201806040525081019061044f9190610e40565b91508192505050610461565b81925050505b90565b600033905060008060009054906101000a900473ffffffffffffffffffffffffffffffffffffffff1673ffffffffffffffffffffffffffffffffffffffff1663b2e1091e836040518263ffffffff1660e01b81526004016104c59190610c86565b600060405180830381865afa1580156104e2573d6000803e3d6000fd5b505050506040513d6000823e3d601f19601f8201168201806040525081019061050b9190610d11565b511461060e57600360009054906101000a900473ffffffffffffffffffffffffffffffffffffffff1673ffffffffffffffffffffffffffffffffffffffff166108fc349081150290604051600060405180830381858888f19350505050158015610579573d6000803e3d6000fd5b5060008054906101000a900473ffffffffffffffffffffffffffffffffffffffff1673ffffffffffffffffffffffffffffffffffffffff16638142ce618333346040518463ffffffff1660e01b81526004016105d793929190610eec565b600060405180830381600087803b1580156105f157600080fd5b505af1158015610605573d6000803e3d6000fd5b50505050610932565b6000600160009054906101000a900473ffffffffffffffffffffffffffffffffffffffff1673ffffffffffffffffffffffffffffffffffffffff1663b2e1091e836040518263ffffffff1660e01b815260040161066b9190610c86565b600060405180830381865afa158015610688573d6000803e3d6000fd5b505050506040513d6000823e3d601f19601f820116820180604052508101906106b19190610d11565b51146107b657600460009054906101000a900473ffffffffffffffffffffffffffffffffffffffff1673ffffffffffffffffffffffffffffffffffffffff166108fc349081150290604051600060405180830381858888f1935050505015801561071f573d6000803e3d6000fd5b50600160009054906101000a900473ffffffffffffffffffffffffffffffffffffffff1673ffffffffffffffffffffffffffffffffffffffff16638142ce618333346040518463ffffffff1660e01b815260040161077f93929190610eec565b600060405180830381600087803b15801561079957600080fd5b505af11580156107ad573d6000803e3d6000fd5b50505050610931565b6000600260009054906101000a900473ffffffffffffffffffffffffffffffffffffffff1673ffffffffffffffffffffffffffffffffffffffff1663b2e1091e836040518263ffffffff1660e01b81526004016108139190610c86565b600060405180830381865afa158015610830573d6000803e3d6000fd5b505050506040513d6000823e3d601f19601f820116820180604052508101906108599190610d11565b51146108f557600260009054906101000a900473ffffffffffffffffffffffffffffffffffffffff1673ffffffffffffffffffffffffffffffffffffffff16638142ce618333346040518463ffffffff1660e01b81526004016108be93929190610eec565b600060405180830381600087803b1580156108d857600080fd5b505af11580156108ec573d6000803e3d6000fd5b50505050610930565b6040517f08c379a000000000000000000000000000000000000000000000000000000000815260040161092790610f76565b60405180910390fd5b5b5b5050565b600081519050919050565b600082825260208201905092915050565b6000819050602082019050919050565b600081519050919050565b600082825260208201905092915050565b60005b8381101561099c578082015181840152602081019050610981565b838111156109ab576000848401525b50505050565b6000601f19601f8301169050919050565b60006109cd82610962565b6109d7818561096d565b93506109e781856020860161097e565b6109f0816109b1565b840191505092915050565b6000610a0783836109c2565b905092915050565b6000602082019050919050565b6000610a2782610936565b610a318185610941565b935083602082028501610a4385610952565b8060005b85811015610a7f5784840389528151610a6085826109fb565b9450610a6b83610a0f565b925060208a01995050600181019050610a47565b50829750879550505050505092915050565b60006020820190508181036000830152610aab8184610a1c565b905092915050565b6000604051905090565b600080fd5b600080fd5b600080fd5b600080fd5b7f4e487b7100000000000000000000000000000000000000000000000000000000600052604160045260246000fd5b610b09826109b1565b810181811067ffffffffffffffff82111715610b2857610b27610ad1565b5b80604052505050565b6000610b3b610ab3565b9050610b478282610b00565b919050565b600067ffffffffffffffff821115610b6757610b66610ad1565b5b610b70826109b1565b9050602081019050919050565b82818337600083830152505050565b6000610b9f610b9a84610b4c565b610b31565b905082815260208101848484011115610bbb57610bba610acc565b5b610bc6848285610b7d565b509392505050565b600082601f830112610be357610be2610ac7565b5b8135610bf3848260208601610b8c565b91505092915050565b600060208284031215610c1257610c11610abd565b5b600082013567ffffffffffffffff811115610c3057610c2f610ac2565b5b610c3c84828501610bce565b91505092915050565b600073ffffffffffffffffffffffffffffffffffffffff82169050919050565b6000610c7082610c45565b9050919050565b610c8081610c65565b82525050565b6000602082019050610c9b6000830184610c77565b92915050565b6000610cb4610caf84610b4c565b610b31565b905082815260208101848484011115610cd057610ccf610acc565b5b610cdb84828561097e565b509392505050565b600082601f830112610cf857610cf7610ac7565b5b8151610d08848260208601610ca1565b91505092915050565b600060208284031215610d2757610d26610abd565b5b600082015167ffffffffffffffff811115610d4557610d44610ac2565b5b610d5184828501610ce3565b91505092915050565b600067ffffffffffffffff821115610d7557610d74610ad1565b5b602082029050602081019050919050565b600080fd5b6000610d9e610d9984610d5a565b610b31565b90508083825260208201905060208402830185811115610dc157610dc0610d86565b5b835b81811015610e0857805167ffffffffffffffff811115610de657610de5610ac7565b5b808601610df38982610ce3565b85526020850194505050602081019050610dc3565b5050509392505050565b600082601f830112610e2757610e26610ac7565b5b8151610e37848260208601610d8b565b91505092915050565b600060208284031215610e5657610e55610abd565b5b600082015167ffffffffffffffff811115610e7457610e73610ac2565b5b610e8084828501610e12565b91505092915050565b600082825260208201905092915050565b6000610ea582610962565b610eaf8185610e89565b9350610ebf81856020860161097e565b610ec8816109b1565b840191505092915050565b6000819050919050565b610ee681610ed3565b82525050565b60006060820190508181036000830152610f068186610e9a565b9050610f156020830185610c77565b610f226040830184610edd565b949350505050565b7f52656c61796572206e6f7420666f756e6420696e20616e79206c617965720000600082015250565b6000610f60601e83610e89565b9150610f6b82610f2a565b602082019050919050565b60006020820190508181036000830152610f8f81610f53565b905091905056fea2646970667358221220e67604e7df2fa8ea68cf37238eb00f11d020ff7e44c05be813af88428009ac8f64736f6c634300080a0033",
  "immutableReferences": {},
  "source": "// SPDX-License-Identifier: MIT\r\npragma solidity ^0.8.0;\r\n\r\nimport \"./LayerA.sol\";\r\nimport \"./LayerB.sol\";\r\nimport \"./LayerC.sol\";\r\n\r\n\r\ncontract Bidding{\r\n\r\n    \r\n    LayerA layerA;\r\n    LayerB layerB;\r\n    LayerC layerC;\r\n\r\n    address payable layera;\r\n    address payable layerb;\r\n    address payable layerc;\r\n\r\n\r\n\r\n\r\n\r\n\r\n  \r\n\r\n    constructor(address payable layerAaddress,address payable layerBaddress,address payable layerCaddress){\r\n        layerA = LayerA(layerAaddress);\r\n        layerB = LayerB(layerBaddress);\r\n        layerC = LayerC(layerCaddress);\r\n        layera = layerAaddress;\r\n        layerb = layerBaddress;\r\n        layerc = layerCaddress;\r\n    }\r\n    \r\n\r\n    function showBids() public view returns(string[] memory){\r\n        \r\n        string[] memory emptyArray;\r\n        //require(layerA.RelayerAdToId(relayer) != \"\", \"Not a relayer\");\r\n        address relayer = msg.sender;\r\n\r\n         if (bytes(layerA.RelayerAdToId(relayer)).length != 0) {\r\n            emptyArray = layerA.getBids();\r\n            return emptyArray;\r\n        }\r\n        else if (bytes(layerB.RelayerAdToId(relayer)).length != 0) {\r\n            emptyArray = layerB.getBids();\r\n            return emptyArray;\r\n        }\r\n        else if (bytes(layerC.RelayerAdToId(relayer)).length != 0) {\r\n            emptyArray = layerC.getBids();\r\n            return emptyArray;\r\n        }\r\n        else{\r\n            return emptyArray;\r\n        }\r\n        \r\n    }\r\n\r\n\r\n\r\n    // this contract enables the relayers to buy the bids\r\n\r\n    function bid(string memory bidId) public payable {\r\n        address relayer = msg.sender;\r\n        \r\n\r\n        // Lock the staked amount in the contract\r\n        // lockedStakes[bidId] = msg.value;\r\n        // bidRelayers[bidId] = relayer;\r\n\r\n        if (bytes(layerA.RelayerAdToId(relayer)).length != 0) {\r\n            layera.transfer(msg.value);\r\n            layerA.placeBid(bidId,msg.sender,msg.value);\r\n        } else if (bytes(layerB.RelayerAdToId(relayer)).length != 0) {\r\n            layerb.transfer(msg.value);\r\n\r\n            layerB.placeBid(bidId, msg.sender,msg.value);\r\n        } else if (bytes(layerC.RelayerAdToId(relayer)).length != 0) {\r\n            layerC.placeBid(bidId, msg.sender,msg.value);\r\n        } else {\r\n            revert(\"Relayer not found in any layer\");\r\n        }\r\n    }\r\n\r\n\r\n}",
  "sourcePath": "D:\\Interoperability\\contracts\\Bidding.sol",
  "compiler": {
    "name": "solc",
    "version": "0.8.10+commit.fc410830.Emscripten.clang"
  },
  "schemaVersion": "3.4.16",
  "updatedAt": "2024-08-14T01:17:31.077Z",
  "networkType": "ethereum",
  "devdoc": {
    "kind": "dev",
    "methods": {},
    "version": 1
  },
  "userdoc": {
    "kind": "user",
    "methods": {},
    "version": 1
  }
}