{
  "contractName": "DestinationChain",
  "abi": [
    {
      "anonymous": false,
      "inputs": [
        {
          "indexed": false,
          "internalType": "string",
          "name": "bidId",
          "type": "string"
        },
        {
          "indexed": false,
          "internalType": "bool",
          "name": "successful",
          "type": "bool"
        },
        {
          "indexed": true,
          "internalType": "address",
          "name": "relayer",
          "type": "address"
        },
        {
          "indexed": true,
          "internalType": "address",
          "name": "challenger",
          "type": "address"
        }
      ],
      "name": "ChallengeResolved",
      "type": "event"
    },
    {
      "anonymous": false,
      "inputs": [
        {
          "indexed": false,
          "internalType": "string",
          "name": "bidId",
          "type": "string"
        },
        {
          "indexed": true,
          "internalType": "address",
          "name": "challenger",
          "type": "address"
        },
        {
          "components": [
            {
              "internalType": "string",
              "name": "bidId",
              "type": "string"
            },
            {
              "internalType": "bytes32",
              "name": "originalHash",
              "type": "bytes32"
            },
            {
              "internalType": "bytes32",
              "name": "publishedHash",
              "type": "bytes32"
            }
          ],
          "indexed": false,
          "internalType": "struct DestinationChain.Evidence",
          "name": "evidence",
          "type": "tuple"
        },
        {
          "indexed": false,
          "internalType": "string",
          "name": "reason",
          "type": "string"
        }
      ],
      "name": "ChallengeSubmitted",
      "type": "event"
    },
    {
      "anonymous": false,
      "inputs": [
        {
          "indexed": false,
          "internalType": "string",
          "name": "bidId",
          "type": "string"
        },
        {
          "indexed": true,
          "internalType": "address",
          "name": "relayer",
          "type": "address"
        },
        {
          "indexed": false,
          "internalType": "bytes32",
          "name": "transactionHash",
          "type": "bytes32"
        }
      ],
      "name": "TransactionPublishedForChallenge",
      "type": "event"
    },
    {
      "inputs": [
        {
          "internalType": "string",
          "name": "",
          "type": "string"
        }
      ],
      "name": "challenged",
      "outputs": [
        {
          "internalType": "bool",
          "name": "",
          "type": "bool"
        }
      ],
      "stateMutability": "view",
      "type": "function",
      "constant": true
    },
    {
      "inputs": [
        {
          "internalType": "string",
          "name": "",
          "type": "string"
        }
      ],
      "name": "publishTimes",
      "outputs": [
        {
          "internalType": "uint256",
          "name": "",
          "type": "uint256"
        }
      ],
      "stateMutability": "view",
      "type": "function",
      "constant": true
    },
    {
      "inputs": [
        {
          "internalType": "string",
          "name": "",
          "type": "string"
        }
      ],
      "name": "relayers",
      "outputs": [
        {
          "internalType": "address",
          "name": "",
          "type": "address"
        }
      ],
      "stateMutability": "view",
      "type": "function",
      "constant": true
    },
    {
      "inputs": [
        {
          "internalType": "string",
          "name": "",
          "type": "string"
        }
      ],
      "name": "transactions",
      "outputs": [
        {
          "internalType": "bytes32",
          "name": "",
          "type": "bytes32"
        }
      ],
      "stateMutability": "view",
      "type": "function",
      "constant": true
    },
    {
      "inputs": [
        {
          "internalType": "string",
          "name": "_bidId",
          "type": "string"
        },
        {
          "internalType": "bytes32",
          "name": "_transactionHash",
          "type": "bytes32"
        }
      ],
      "name": "publishTransactionForChallenge",
      "outputs": [],
      "stateMutability": "nonpayable",
      "type": "function"
    },
    {
      "inputs": [
        {
          "internalType": "string",
          "name": "_bidId",
          "type": "string"
        },
        {
          "components": [
            {
              "internalType": "string",
              "name": "bidId",
              "type": "string"
            },
            {
              "internalType": "bytes32",
              "name": "originalHash",
              "type": "bytes32"
            },
            {
              "internalType": "bytes32",
              "name": "publishedHash",
              "type": "bytes32"
            }
          ],
          "internalType": "struct DestinationChain.Evidence",
          "name": "_evidence",
          "type": "tuple"
        },
        {
          "internalType": "string",
          "name": "_reason",
          "type": "string"
        }
      ],
      "name": "challengeTransaction",
      "outputs": [],
      "stateMutability": "payable",
      "type": "function",
      "payable": true
    },
    {
      "inputs": [
        {
          "internalType": "string",
          "name": "_bidId",
          "type": "string"
        },
        {
          "internalType": "bool",
          "name": "_isFaulty",
          "type": "bool"
        }
      ],
      "name": "resolveChallenge",
      "outputs": [],
      "stateMutability": "nonpayable",
      "type": "function"
    }
  ],
  "bytecode": "0x608060405234801561001057600080fd5b50611084806100206000396000f3fe6080604052600436106100705760003560e01c80638cdb11db1161004e5780638cdb11db146100f75780638fb7de4514610134578063ae23e9d314610171578063cfb388ff1461019a57610070565b8063022236f4146100755780631553941c146100b25780632101cfb2146100ce575b600080fd5b34801561008157600080fd5b5061009c6004803603810190610097919061087e565b6101d7565b6040516100a991906108e0565b60405180910390f35b6100cc60048036038101906100c791906109b1565b610205565b005b3480156100da57600080fd5b506100f560048036038101906100f09190610a58565b6103ab565b005b34801561010357600080fd5b5061011e6004803603810190610119919061087e565b610505565b60405161012b9190610af5565b60405180910390f35b34801561014057600080fd5b5061015b6004803603810190610156919061087e565b61054e565b6040516101689190610b29565b60405180910390f35b34801561017d57600080fd5b5061019860048036038101906101939190610b7c565b61057c565b005b3480156101a657600080fd5b506101c160048036038101906101bc919061087e565b6106c9565b6040516101ce9190610be7565b60405180910390f35b6000818051602081018201805184825260208301602085012081835280955050505050506000915090505481565b6000801b6000846040516102199190610c7c565b9081526020016040518091039020541415610269576040517f08c379a000000000000000000000000000000000000000000000000000000000815260040161026090610cf0565b60405180910390fd5b6002836040516102799190610c7c565b908152602001604051809103902060009054906101000a900460ff16156102d5576040517f08c379a00000000000000000000000000000000000000000000000000000000081526004016102cc90610d5c565b60405180910390fd5b6102de826106ff565b61031d576040517f08c379a000000000000000000000000000000000000000000000000000000000815260040161031490610dc8565b60405180910390fd5b600160028460405161032f9190610c7c565b908152602001604051809103902060006101000a81548160ff0219169083151502179055503373ffffffffffffffffffffffffffffffffffffffff167f13f06afaff29504752ee6e4de86aed8e0935a48196ee8fb1fe0bfb1825ef9f0d84848460405161039e93929190610eca565b60405180910390a2505050565b6000801b6000836040516103bf9190610c7c565b9081526020016040518091039020541461040e576040517f08c379a000000000000000000000000000000000000000000000000000000000815260040161040590610f62565b60405180910390fd5b8060008360405161041f9190610c7c565b908152602001604051809103902081905550336001836040516104429190610c7c565b908152602001604051809103902060006101000a81548173ffffffffffffffffffffffffffffffffffffffff021916908373ffffffffffffffffffffffffffffffffffffffff1602179055504260038360405161049f9190610c7c565b9081526020016040518091039020819055503373ffffffffffffffffffffffffffffffffffffffff167f26689f6f4c3b12fa10047962125299684ab495330abc908b734c352e8c699cea83836040516104f9929190610f82565b60405180910390a25050565b6001818051602081018201805184825260208301602085012081835280955050505050506000915054906101000a900473ffffffffffffffffffffffffffffffffffffffff1681565b6003818051602081018201805184825260208301602085012081835280955050505050506000915090505481565b60028260405161058c9190610c7c565b908152602001604051809103902060009054906101000a900460ff166105e7576040517f08c379a00000000000000000000000000000000000000000000000000000000081526004016105de90610ffe565b60405180910390fd5b60006001836040516105f99190610c7c565b908152602001604051809103902060009054906101000a900473ffffffffffffffffffffffffffffffffffffffff1690506000339050821561065c576000801b6000856040516106499190610c7c565b9081526020016040518091039020819055505b8073ffffffffffffffffffffffffffffffffffffffff168273ffffffffffffffffffffffffffffffffffffffff167fc609dd4d8b762b7cfbd566816cab077bcc53983abc6764d3cfead08c3c6d111486866040516106bb92919061101e565b60405180910390a350505050565b6002818051602081018201805184825260208301602085012081835280955050505050506000915054906101000a900460ff1681565b600081604001518260200151141561071a576000905061071f565b600190505b919050565b6000604051905090565b600080fd5b600080fd5b600080fd5b600080fd5b6000601f19601f8301169050919050565b7f4e487b7100000000000000000000000000000000000000000000000000000000600052604160045260246000fd5b61078b82610742565b810181811067ffffffffffffffff821117156107aa576107a9610753565b5b80604052505050565b60006107bd610724565b90506107c98282610782565b919050565b600067ffffffffffffffff8211156107e9576107e8610753565b5b6107f282610742565b9050602081019050919050565b82818337600083830152505050565b600061082161081c846107ce565b6107b3565b90508281526020810184848401111561083d5761083c61073d565b5b6108488482856107ff565b509392505050565b600082601f83011261086557610864610738565b5b813561087584826020860161080e565b91505092915050565b6000602082840312156108945761089361072e565b5b600082013567ffffffffffffffff8111156108b2576108b1610733565b5b6108be84828501610850565b91505092915050565b6000819050919050565b6108da816108c7565b82525050565b60006020820190506108f560008301846108d1565b92915050565b600080fd5b600080fd5b61090e816108c7565b811461091957600080fd5b50565b60008135905061092b81610905565b92915050565b600060608284031215610947576109466108fb565b5b61095160606107b3565b9050600082013567ffffffffffffffff81111561097157610970610900565b5b61097d84828501610850565b60008301525060206109918482850161091c565b60208301525060406109a58482850161091c565b60408301525092915050565b6000806000606084860312156109ca576109c961072e565b5b600084013567ffffffffffffffff8111156109e8576109e7610733565b5b6109f486828701610850565b935050602084013567ffffffffffffffff811115610a1557610a14610733565b5b610a2186828701610931565b925050604084013567ffffffffffffffff811115610a4257610a41610733565b5b610a4e86828701610850565b9150509250925092565b60008060408385031215610a6f57610a6e61072e565b5b600083013567ffffffffffffffff811115610a8d57610a8c610733565b5b610a9985828601610850565b9250506020610aaa8582860161091c565b9150509250929050565b600073ffffffffffffffffffffffffffffffffffffffff82169050919050565b6000610adf82610ab4565b9050919050565b610aef81610ad4565b82525050565b6000602082019050610b0a6000830184610ae6565b92915050565b6000819050919050565b610b2381610b10565b82525050565b6000602082019050610b3e6000830184610b1a565b92915050565b60008115159050919050565b610b5981610b44565b8114610b6457600080fd5b50565b600081359050610b7681610b50565b92915050565b60008060408385031215610b9357610b9261072e565b5b600083013567ffffffffffffffff811115610bb157610bb0610733565b5b610bbd85828601610850565b9250506020610bce85828601610b67565b9150509250929050565b610be181610b44565b82525050565b6000602082019050610bfc6000830184610bd8565b92915050565b600081519050919050565b600081905092915050565b60005b83811015610c36578082015181840152602081019050610c1b565b83811115610c45576000848401525b50505050565b6000610c5682610c02565b610c608185610c0d565b9350610c70818560208601610c18565b80840191505092915050565b6000610c888284610c4b565b915081905092915050565b600082825260208201905092915050565b7f5472616e73616374696f6e206e6f74207075626c697368656400000000000000600082015250565b6000610cda601983610c93565b9150610ce582610ca4565b602082019050919050565b60006020820190508181036000830152610d0981610ccd565b9050919050565b7f416c7265616479206368616c6c656e6765640000000000000000000000000000600082015250565b6000610d46601283610c93565b9150610d5182610d10565b602082019050919050565b60006020820190508181036000830152610d7581610d39565b9050919050565b7f496e76616c69642065766964656e636500000000000000000000000000000000600082015250565b6000610db2601083610c93565b9150610dbd82610d7c565b602082019050919050565b60006020820190508181036000830152610de181610da5565b9050919050565b6000610df382610c02565b610dfd8185610c93565b9350610e0d818560208601610c18565b610e1681610742565b840191505092915050565b600082825260208201905092915050565b6000610e3d82610c02565b610e478185610e21565b9350610e57818560208601610c18565b610e6081610742565b840191505092915050565b610e74816108c7565b82525050565b60006060830160008301518482036000860152610e978282610e32565b9150506020830151610eac6020860182610e6b565b506040830151610ebf6040860182610e6b565b508091505092915050565b60006060820190508181036000830152610ee48186610de8565b90508181036020830152610ef88185610e7a565b90508181036040830152610f0c8184610de8565b9050949350505050565b7f5472616e73616374696f6e20616c7265616479207075626c6973686564000000600082015250565b6000610f4c601d83610c93565b9150610f5782610f16565b602082019050919050565b60006020820190508181036000830152610f7b81610f3f565b9050919050565b60006040820190508181036000830152610f9c8185610de8565b9050610fab60208301846108d1565b9392505050565b7f4e6f206368616c6c656e676520666f756e640000000000000000000000000000600082015250565b6000610fe8601283610c93565b9150610ff382610fb2565b602082019050919050565b6000602082019050818103600083015261101781610fdb565b9050919050565b600060408201905081810360008301526110388185610de8565b90506110476020830184610bd8565b939250505056fea2646970667358221220c6069d7a3d264823c16978ea1651b53883ae96463ac7cae71807e7de13bf1e2964736f6c634300080a0033",
  "immutableReferences": {},
  "source": "// SPDX-License-Identifier: MIT\r\npragma solidity ^0.8.0;\r\n\r\ncontract DestinationChain {\r\n    struct Evidence {\r\n        string bidId;\r\n        bytes32 originalHash;\r\n        bytes32 publishedHash;\r\n    }\r\n\r\n    event TransactionPublishedForChallenge(string bidId, address indexed relayer, bytes32 transactionHash);\r\n    event ChallengeSubmitted(string bidId, address indexed challenger, Evidence evidence, string reason);\r\n    event ChallengeResolved(string bidId, bool successful, address indexed relayer, address indexed challenger);\r\n\r\n    // stores the transaction hashes associated with specific bid IDs.\r\n    mapping(string => bytes32) public transactions;\r\n\r\n    // records the addresses of the relayers responsible for each transaction.\r\n    mapping(string => address) public relayers;\r\n\r\n    // tracks whether a particular bid ID has been challenged or not.\r\n    mapping(string => bool) public challenged;  \r\n\r\n    // stores the timestamps of when each transaction was published.\r\n    mapping(string => uint256) public publishTimes;\r\n  \r\n\r\n    function publishTransactionForChallenge(string memory _bidId, bytes32 _transactionHash) public {\r\n        require(transactions[_bidId] == bytes32(0), \"Transaction already published\");\r\n\r\n\r\n        transactions[_bidId] = _transactionHash;\r\n        relayers[_bidId] = msg.sender;\r\n        publishTimes[_bidId] = block.timestamp;\r\n\r\n        emit TransactionPublishedForChallenge(_bidId, msg.sender, _transactionHash);\r\n    }\r\n\r\n    function challengeTransaction(string memory _bidId, Evidence memory _evidence, string memory _reason) public payable  {\r\n        require(transactions[_bidId] != bytes32(0), \"Transaction not published\");\r\n        require(!challenged[_bidId], \"Already challenged\");\r\n\r\n        // Verify evidence\r\n        require(verifyEvidence(_evidence), \"Invalid evidence\");\r\n\r\n        challenged[_bidId] = true;\r\n\r\n        emit ChallengeSubmitted(_bidId, msg.sender, _evidence, _reason);\r\n    }\r\n\r\n    function resolveChallenge(string memory _bidId, bool _isFaulty) public {\r\n        require(challenged[_bidId], \"No challenge found\");\r\n\r\n        address relayer = relayers[_bidId];\r\n        address challenger = msg.sender;\r\n\r\n        if (_isFaulty) {\r\n            // Penalize the relayer and reward the challenger\r\n            // uint256 penaltyAmount = getPenaltyAmount(_bidId);\r\n            // payable(challenger).transfer(penaltyAmount);\r\n            // Reset transaction data to avoid re-publishing\r\n            transactions[_bidId] = bytes32(0);\r\n        }\r\n\r\n        emit ChallengeResolved(_bidId, _isFaulty, relayer, challenger);\r\n    }\r\n\r\n    // function getRequiredStake(uint256 _bidId) internal pure returns (uint256) {\r\n    //     // Implement your logic to calculate required stake based on bidId\r\n    //     return 1 ether; // Example fixed stake amount\r\n    // }\r\n\r\n    // function getPenaltyAmount(uint256 _bidId) internal pure returns (uint256) {\r\n    //     // Implement your logic to calculate penalty amount based on bidId\r\n    //     return 1 ether; // Example fixed penalty amount\r\n    // }\r\n\r\n    function verifyEvidence(Evidence memory _evidence) internal pure returns (bool) {\r\n        // Verify that the originalHash matches the publishedHash\r\n        if (_evidence.originalHash == _evidence.publishedHash) {\r\n            return false;\r\n        }\r\n        else return true;\r\n    }\r\n\r\n    \r\n\r\n\r\n}\r\n",
  "sourcePath": "D:\\Interoperability\\contracts\\DestinationChain.sol",
  "compiler": {
    "name": "solc",
    "version": "0.8.10+commit.fc410830.Emscripten.clang"
  },
  "schemaVersion": "3.4.16",
  "updatedAt": "2024-08-14T01:17:31.356Z",
  "networkType": "ethereum",
  "devdoc": {
    "kind": "dev",
    "methods": {},
    "version": 1
  },
  "userdoc": {
    "kind": "user",
    "methods": {},
    "version": 1
  }
}