{
  "contractName": "LayerA",
  "abi": [
    {
      "anonymous": false,
      "inputs": [
        {
          "indexed": false,
          "internalType": "address",
          "name": "sender",
          "type": "address"
        },
        {
          "indexed": false,
          "internalType": "uint256",
          "name": "amount",
          "type": "uint256"
        }
      ],
      "name": "Received",
      "type": "event"
    },
    {
      "anonymous": false,
      "inputs": [
        {
          "indexed": false,
          "internalType": "string",
          "name": "bidId",
          "type": "string"
        }
      ],
      "name": "bidAddedToLayer",
      "type": "event"
    },
    {
      "anonymous": false,
      "inputs": [
        {
          "indexed": false,
          "internalType": "address",
          "name": "relayer",
          "type": "address"
        },
        {
          "indexed": false,
          "internalType": "string",
          "name": "bidId",
          "type": "string"
        }
      ],
      "name": "bidPlaced",
      "type": "event"
    },
    {
      "anonymous": false,
      "inputs": [
        {
          "indexed": false,
          "internalType": "string",
          "name": "bidId",
          "type": "string"
        },
        {
          "indexed": false,
          "internalType": "address",
          "name": "_challenger",
          "type": "address"
        }
      ],
      "name": "challengeResolved",
      "type": "event"
    },
    {
      "anonymous": false,
      "inputs": [
        {
          "indexed": false,
          "internalType": "address",
          "name": "relayer",
          "type": "address"
        },
        {
          "indexed": false,
          "internalType": "string",
          "name": "relayerId",
          "type": "string"
        }
      ],
      "name": "relayerAdded",
      "type": "event"
    },
    {
      "inputs": [
        {
          "internalType": "uint256",
          "name": "",
          "type": "uint256"
        }
      ],
      "name": "Bids",
      "outputs": [
        {
          "internalType": "string",
          "name": "",
          "type": "string"
        }
      ],
      "stateMutability": "view",
      "type": "function",
      "constant": true
    },
    {
      "inputs": [
        {
          "internalType": "string",
          "name": "",
          "type": "string"
        }
      ],
      "name": "BidsMap",
      "outputs": [
        {
          "internalType": "address",
          "name": "sender",
          "type": "address"
        },
        {
          "internalType": "address",
          "name": "receiver",
          "type": "address"
        },
        {
          "internalType": "uint256",
          "name": "amount",
          "type": "uint256"
        },
        {
          "internalType": "bool",
          "name": "locked",
          "type": "bool"
        },
        {
          "internalType": "bool",
          "name": "bought",
          "type": "bool"
        },
        {
          "internalType": "string",
          "name": "Id",
          "type": "string"
        }
      ],
      "stateMutability": "view",
      "type": "function",
      "constant": true
    },
    {
      "inputs": [
        {
          "internalType": "address",
          "name": "",
          "type": "address"
        }
      ],
      "name": "RelayerAdToId",
      "outputs": [
        {
          "internalType": "string",
          "name": "",
          "type": "string"
        }
      ],
      "stateMutability": "view",
      "type": "function",
      "constant": true
    },
    {
      "inputs": [
        {
          "internalType": "string",
          "name": "",
          "type": "string"
        }
      ],
      "name": "RelayersA",
      "outputs": [
        {
          "internalType": "address",
          "name": "relayer",
          "type": "address"
        },
        {
          "internalType": "string",
          "name": "relayerId",
          "type": "string"
        },
        {
          "internalType": "string",
          "name": "assignedBidId",
          "type": "string"
        },
        {
          "internalType": "string",
          "name": "name",
          "type": "string"
        }
      ],
      "stateMutability": "view",
      "type": "function",
      "constant": true
    },
    {
      "inputs": [
        {
          "internalType": "string",
          "name": "",
          "type": "string"
        },
        {
          "internalType": "uint256",
          "name": "",
          "type": "uint256"
        }
      ],
      "name": "bidRelayers",
      "outputs": [
        {
          "internalType": "string",
          "name": "",
          "type": "string"
        }
      ],
      "stateMutability": "view",
      "type": "function",
      "constant": true
    },
    {
      "inputs": [
        {
          "internalType": "string",
          "name": "",
          "type": "string"
        }
      ],
      "name": "lockedStakesForBidId",
      "outputs": [
        {
          "internalType": "uint256",
          "name": "",
          "type": "uint256"
        }
      ],
      "stateMutability": "view",
      "type": "function",
      "constant": true
    },
    {
      "stateMutability": "payable",
      "type": "receive",
      "payable": true
    },
    {
      "inputs": [],
      "name": "getRelayers",
      "outputs": [
        {
          "internalType": "string[]",
          "name": "",
          "type": "string[]"
        }
      ],
      "stateMutability": "view",
      "type": "function",
      "constant": true
    },
    {
      "inputs": [],
      "name": "getBids",
      "outputs": [
        {
          "internalType": "string[]",
          "name": "",
          "type": "string[]"
        }
      ],
      "stateMutability": "view",
      "type": "function",
      "constant": true
    },
    {
      "inputs": [
        {
          "internalType": "string",
          "name": "_id",
          "type": "string"
        }
      ],
      "name": "bidgetter",
      "outputs": [
        {
          "internalType": "uint256",
          "name": "",
          "type": "uint256"
        }
      ],
      "stateMutability": "view",
      "type": "function",
      "constant": true
    },
    {
      "inputs": [
        {
          "internalType": "string",
          "name": "_id",
          "type": "string"
        },
        {
          "internalType": "string",
          "name": "_name",
          "type": "string"
        },
        {
          "internalType": "address",
          "name": "_relayer",
          "type": "address"
        }
      ],
      "name": "addRelayer",
      "outputs": [],
      "stateMutability": "nonpayable",
      "type": "function"
    },
    {
      "inputs": [
        {
          "internalType": "address",
          "name": "_sender",
          "type": "address"
        },
        {
          "internalType": "address",
          "name": "_receiver",
          "type": "address"
        },
        {
          "internalType": "uint256",
          "name": "_amount",
          "type": "uint256"
        },
        {
          "internalType": "bool",
          "name": "_locked",
          "type": "bool"
        },
        {
          "internalType": "bool",
          "name": "_bought",
          "type": "bool"
        },
        {
          "internalType": "string",
          "name": "_id",
          "type": "string"
        }
      ],
      "name": "addBid",
      "outputs": [],
      "stateMutability": "nonpayable",
      "type": "function"
    },
    {
      "inputs": [
        {
          "internalType": "string",
          "name": "bidId",
          "type": "string"
        },
        {
          "internalType": "address",
          "name": "relayer",
          "type": "address"
        },
        {
          "internalType": "uint256",
          "name": "_amount",
          "type": "uint256"
        }
      ],
      "name": "placeBid",
      "outputs": [],
      "stateMutability": "nonpayable",
      "type": "function"
    },
    {
      "inputs": [
        {
          "internalType": "address",
          "name": "_relayer",
          "type": "address"
        }
      ],
      "name": "isRelayerExists",
      "outputs": [
        {
          "internalType": "bool",
          "name": "",
          "type": "bool"
        }
      ],
      "stateMutability": "view",
      "type": "function",
      "constant": true
    },
    {
      "inputs": [
        {
          "internalType": "string",
          "name": "_bidId",
          "type": "string"
        },
        {
          "internalType": "address payable",
          "name": "_challenger",
          "type": "address"
        }
      ],
      "name": "resolveChallenge",
      "outputs": [],
      "stateMutability": "nonpayable",
      "type": "function"
    }
  ],
  "bytecode": "0x608060405234801561001057600080fd5b506120dc806100206000396000f3fe6080604052600436106100e15760003560e01c80639af8e3901161007f578063b81c78ec11610059578063b81c78ec1461032e578063bc9ebbcc14610359578063d401fc9014610396578063db70e90d146103d357610121565b80639af8e39014610288578063a5133e0e146102c8578063b2e1091e146102f157610121565b80636613e824116100bb5780636613e824146101d057806372db2223146101f957806374cd0c40146102225780638142ce611461025f57610121565b8063136c67ff14610126578063179ff4b214610163578063277f67e71461018e57610121565b36610121577f88a5966d370b9919b20f3e2c13ff65706f196a4e32cc2c12bf57088f885258743334604051610117929190611484565b60405180910390a1005b600080fd5b34801561013257600080fd5b5061014d600480360381019061014891906114ed565b610410565b60405161015a9190611535565b60405180910390f35b34801561016f57600080fd5b50610178610468565b60405161018591906116ab565b60405180910390f35b34801561019a57600080fd5b506101b560048036038101906101b09190611802565b610541565b6040516101c796959493929190611895565b60405180910390f35b3480156101dc57600080fd5b506101f760048036038101906101f29190611955565b610675565b005b34801561020557600080fd5b50610220600480360381019061021b9190611a3c565b610863565b005b34801561022e57600080fd5b5061024960048036038101906102449190611a98565b6108a0565b6040516102569190611ac5565b60405180910390f35b34801561026b57600080fd5b5061028660048036038101906102819190611ae7565b61094c565b005b34801561029457600080fd5b506102af60048036038101906102aa9190611802565b610cf2565b6040516102bf9493929190611b56565b60405180910390f35b3480156102d457600080fd5b506102ef60048036038101906102ea9190611bb0565b610ef0565b005b3480156102fd57600080fd5b50610318600480360381019061031391906114ed565b6110e9565b6040516103259190611ac5565b60405180910390f35b34801561033a57600080fd5b50610343611189565b60405161035091906116ab565b60405180910390f35b34801561036557600080fd5b50610380600480360381019061037b9190611c3b565b611262565b60405161038d9190611ac5565b60405180910390f35b3480156103a257600080fd5b506103bd60048036038101906103b89190611802565b611331565b6040516103ca9190611c97565b60405180910390f35b3480156103df57600080fd5b506103fa60048036038101906103f59190611802565b61135f565b6040516104079190611c97565b60405180910390f35b600080600460008473ffffffffffffffffffffffffffffffffffffffff1673ffffffffffffffffffffffffffffffffffffffff168152602001908152602001600020805461045d90611ce1565b905014159050919050565b60606000805480602002602001604051908101604052809291908181526020016000905b828210156105385783829060005260206000200180546104ab90611ce1565b80601f01602080910402602001604051908101604052809291908181526020018280546104d790611ce1565b80156105245780601f106104f957610100808354040283529160200191610524565b820191906000526020600020905b81548152906001019060200180831161050757829003601f168201915b50505050508152602001906001019061048c565b50505050905090565b6003818051602081018201805184825260208301602085012081835280955050505050506000915090508060000160009054906101000a900473ffffffffffffffffffffffffffffffffffffffff16908060010160009054906101000a900473ffffffffffffffffffffffffffffffffffffffff16908060020154908060030160009054906101000a900460ff16908060030160019054906101000a900460ff16908060040180546105f290611ce1565b80601f016020809104026020016040519081016040528092919081815260200182805461061e90611ce1565b801561066b5780601f106106405761010080835404028352916020019161066b565b820191906000526020600020905b81548152906001019060200180831161064e57829003601f168201915b5050505050905086565b6040518060c001604052808773ffffffffffffffffffffffffffffffffffffffff1681526020018673ffffffffffffffffffffffffffffffffffffffff16815260200185815260200184151581526020018315158152602001828152506003826040516106e29190611d4f565b908152602001604051809103902060008201518160000160006101000a81548173ffffffffffffffffffffffffffffffffffffffff021916908373ffffffffffffffffffffffffffffffffffffffff16021790555060208201518160010160006101000a81548173ffffffffffffffffffffffffffffffffffffffff021916908373ffffffffffffffffffffffffffffffffffffffff1602179055506040820151816002015560608201518160030160006101000a81548160ff02191690831515021790555060808201518160030160016101000a81548160ff02191690831515021790555060a08201518160040190805190602001906107e4929190611387565b50905050600181908060018154018082558091505060019003906000526020600020016000909190919091509080519060200190610823929190611387565b507f0c5cc8af0e42171b1a4e13abbfa31fdf34d981ae13e5e6e4ab4d94b69b994fc1816040516108539190611ac5565b60405180910390a1505050505050565b7f51479e721f91885fc7c7d3076948aab671155b1ac2524b45f34a773e69429a328282604051610894929190611dc5565b60405180910390a15050565b600181815481106108b057600080fd5b9060005260206000200160009150905080546108cb90611ce1565b80601f01602080910402602001604051908101604052809291908181526020018280546108f790611ce1565b80156109445780601f1061091957610100808354040283529160200191610944565b820191906000526020600020905b81548152906001019060200180831161092757829003601f168201915b505050505081565b60008360405160200161095f9190611d4f565b60405160208183030381529060405290506000600460008573ffffffffffffffffffffffffffffffffffffffff1673ffffffffffffffffffffffffffffffffffffffff16815260200190815260200160002080546109bc90611ce1565b905014156109ff576040517f08c379a00000000000000000000000000000000000000000000000000000000081526004016109f690611e41565b60405180910390fd5b600381604051610a0f9190611d4f565b9081526020016040518091039020600201548211610a62576040517f08c379a0000000000000000000000000000000000000000000000000000000008152600401610a5990611ed3565b60405180910390fd5b60011515600382604051610a769190611d4f565b908152602001604051809103902060030160009054906101000a900460ff16151514610ad7576040517f08c379a0000000000000000000000000000000000000000000000000000000008152600401610ace90611f3f565b60405180910390fd5b60001515600382604051610aeb9190611d4f565b908152602001604051809103902060030160019054906101000a900460ff16151514610b4c576040517f08c379a0000000000000000000000000000000000000000000000000000000008152600401610b4390611fab565b60405180910390fd5b6001600382604051610b5e9190611d4f565b908152602001604051809103902060030160016101000a81548160ff021916908315150217905550806002600460008673ffffffffffffffffffffffffffffffffffffffff1673ffffffffffffffffffffffffffffffffffffffff168152602001908152602001600020604051610bd5919061205f565b90815260200160405180910390206002019080519060200190610bf9929190611387565b506006600460008573ffffffffffffffffffffffffffffffffffffffff1673ffffffffffffffffffffffffffffffffffffffff168152602001908152602001600020604051610c48919061205f565b908152602001604051809103902084908060018154018082558091505060019003906000526020600020016000909190919091509080519060200190610c8f929190611387565b5081600582604051610ca19190611d4f565b9081526020016040518091039020819055507fb69936364f93e1642cb505be502966b959556781c3a08a939e05614380834e998385604051610ce4929190612076565b60405180910390a150505050565b6002818051602081018201805184825260208301602085012081835280955050505050506000915090508060000160009054906101000a900473ffffffffffffffffffffffffffffffffffffffff1690806001018054610d5190611ce1565b80601f0160208091040260200160405190810160405280929190818152602001828054610d7d90611ce1565b8015610dca5780601f10610d9f57610100808354040283529160200191610dca565b820191906000526020600020905b815481529060010190602001808311610dad57829003601f168201915b505050505090806002018054610ddf90611ce1565b80601f0160208091040260200160405190810160405280929190818152602001828054610e0b90611ce1565b8015610e585780601f10610e2d57610100808354040283529160200191610e58565b820191906000526020600020905b815481529060010190602001808311610e3b57829003601f168201915b505050505090806003018054610e6d90611ce1565b80601f0160208091040260200160405190810160405280929190818152602001828054610e9990611ce1565b8015610ee65780601f10610ebb57610100808354040283529160200191610ee6565b820191906000526020600020905b815481529060010190602001808311610ec957829003601f168201915b5050505050905084565b60405180608001604052808273ffffffffffffffffffffffffffffffffffffffff1681526020018481526020016040518060400160405280600481526020017f6e756c6c00000000000000000000000000000000000000000000000000000000815250815260200183815250600284604051610f6c9190611d4f565b908152602001604051809103902060008201518160000160006101000a81548173ffffffffffffffffffffffffffffffffffffffff021916908373ffffffffffffffffffffffffffffffffffffffff1602179055506020820151816001019080519060200190610fdd929190611387565b506040820151816002019080519060200190610ffa929190611387565b506060820151816003019080519060200190611017929190611387565b50905050600083908060018154018082558091505060019003906000526020600020016000909190919091509080519060200190611056929190611387565b5082600460008373ffffffffffffffffffffffffffffffffffffffff1673ffffffffffffffffffffffffffffffffffffffff16815260200190815260200160002090805190602001906110aa929190611387565b507f6972234f8c23f8cbf4b5474d6b4b96b1d11dc30a84f5048f4953a85487b8f78381846040516110dc929190612076565b60405180910390a1505050565b6004602052806000526040600020600091509050805461110890611ce1565b80601f016020809104026020016040519081016040528092919081815260200182805461113490611ce1565b80156111815780601f1061115657610100808354040283529160200191611181565b820191906000526020600020905b81548152906001019060200180831161116457829003601f168201915b505050505081565b60606001805480602002602001604051908101604052809291908181526020016000905b828210156112595783829060005260206000200180546111cc90611ce1565b80601f01602080910402602001604051908101604052809291908181526020018280546111f890611ce1565b80156112455780601f1061121a57610100808354040283529160200191611245565b820191906000526020600020905b81548152906001019060200180831161122857829003601f168201915b5050505050815260200190600101906111ad565b50505050905090565b600682805160208101820180518482526020830160208501208183528095505050505050818154811061129457600080fd5b906000526020600020016000915091505080546112b090611ce1565b80601f01602080910402602001604051908101604052809291908181526020018280546112dc90611ce1565b80156113295780601f106112fe57610100808354040283529160200191611329565b820191906000526020600020905b81548152906001019060200180831161130c57829003601f168201915b505050505081565b6005818051602081018201805184825260208301602085012081835280955050505050506000915090505481565b60006005826040516113719190611d4f565b9081526020016040518091039020549050919050565b82805461139390611ce1565b90600052602060002090601f0160209004810192826113b557600085556113fc565b82601f106113ce57805160ff19168380011785556113fc565b828001600101855582156113fc579182015b828111156113fb5782518255916020019190600101906113e0565b5b509050611409919061140d565b5090565b5b8082111561142657600081600090555060010161140e565b5090565b600073ffffffffffffffffffffffffffffffffffffffff82169050919050565b60006114558261142a565b9050919050565b6114658161144a565b82525050565b6000819050919050565b61147e8161146b565b82525050565b6000604082019050611499600083018561145c565b6114a66020830184611475565b9392505050565b6000604051905090565b600080fd5b600080fd5b6114ca8161144a565b81146114d557600080fd5b50565b6000813590506114e7816114c1565b92915050565b600060208284031215611503576115026114b7565b5b6000611511848285016114d8565b91505092915050565b60008115159050919050565b61152f8161151a565b82525050565b600060208201905061154a6000830184611526565b92915050565b600081519050919050565b600082825260208201905092915050565b6000819050602082019050919050565b600081519050919050565b600082825260208201905092915050565b60005b838110156115b657808201518184015260208101905061159b565b838111156115c5576000848401525b50505050565b6000601f19601f8301169050919050565b60006115e78261157c565b6115f18185611587565b9350611601818560208601611598565b61160a816115cb565b840191505092915050565b600061162183836115dc565b905092915050565b6000602082019050919050565b600061164182611550565b61164b818561155b565b93508360208202850161165d8561156c565b8060005b85811015611699578484038952815161167a8582611615565b945061168583611629565b925060208a01995050600181019050611661565b50829750879550505050505092915050565b600060208201905081810360008301526116c58184611636565b905092915050565b600080fd5b600080fd5b7f4e487b7100000000000000000000000000000000000000000000000000000000600052604160045260246000fd5b61170f826115cb565b810181811067ffffffffffffffff8211171561172e5761172d6116d7565b5b80604052505050565b60006117416114ad565b905061174d8282611706565b919050565b600067ffffffffffffffff82111561176d5761176c6116d7565b5b611776826115cb565b9050602081019050919050565b82818337600083830152505050565b60006117a56117a084611752565b611737565b9050828152602081018484840111156117c1576117c06116d2565b5b6117cc848285611783565b509392505050565b600082601f8301126117e9576117e86116cd565b5b81356117f9848260208601611792565b91505092915050565b600060208284031215611818576118176114b7565b5b600082013567ffffffffffffffff811115611836576118356114bc565b5b611842848285016117d4565b91505092915050565b600082825260208201905092915050565b60006118678261157c565b611871818561184b565b9350611881818560208601611598565b61188a816115cb565b840191505092915050565b600060c0820190506118aa600083018961145c565b6118b7602083018861145c565b6118c46040830187611475565b6118d16060830186611526565b6118de6080830185611526565b81810360a08301526118f0818461185c565b9050979650505050505050565b6119068161146b565b811461191157600080fd5b50565b600081359050611923816118fd565b92915050565b6119328161151a565b811461193d57600080fd5b50565b60008135905061194f81611929565b92915050565b60008060008060008060c08789031215611972576119716114b7565b5b600061198089828a016114d8565b965050602061199189828a016114d8565b95505060406119a289828a01611914565b94505060606119b389828a01611940565b93505060806119c489828a01611940565b92505060a087013567ffffffffffffffff8111156119e5576119e46114bc565b5b6119f189828a016117d4565b9150509295509295509295565b6000611a098261142a565b9050919050565b611a19816119fe565b8114611a2457600080fd5b50565b600081359050611a3681611a10565b92915050565b60008060408385031215611a5357611a526114b7565b5b600083013567ffffffffffffffff811115611a7157611a706114bc565b5b611a7d858286016117d4565b9250506020611a8e85828601611a27565b9150509250929050565b600060208284031215611aae57611aad6114b7565b5b6000611abc84828501611914565b91505092915050565b60006020820190508181036000830152611adf818461185c565b905092915050565b600080600060608486031215611b0057611aff6114b7565b5b600084013567ffffffffffffffff811115611b1e57611b1d6114bc565b5b611b2a868287016117d4565b9350506020611b3b868287016114d8565b9250506040611b4c86828701611914565b9150509250925092565b6000608082019050611b6b600083018761145c565b8181036020830152611b7d818661185c565b90508181036040830152611b91818561185c565b90508181036060830152611ba5818461185c565b905095945050505050565b600080600060608486031215611bc957611bc86114b7565b5b600084013567ffffffffffffffff811115611be757611be66114bc565b5b611bf3868287016117d4565b935050602084013567ffffffffffffffff811115611c1457611c136114bc565b5b611c20868287016117d4565b9250506040611c31868287016114d8565b9150509250925092565b60008060408385031215611c5257611c516114b7565b5b600083013567ffffffffffffffff811115611c7057611c6f6114bc565b5b611c7c858286016117d4565b9250506020611c8d85828601611914565b9150509250929050565b6000602082019050611cac6000830184611475565b92915050565b7f4e487b7100000000000000000000000000000000000000000000000000000000600052602260045260246000fd5b60006002820490506001821680611cf957607f821691505b60208210811415611d0d57611d0c611cb2565b5b50919050565b600081905092915050565b6000611d298261157c565b611d338185611d13565b9350611d43818560208601611598565b80840191505092915050565b6000611d5b8284611d1e565b915081905092915050565b6000819050919050565b6000611d8b611d86611d818461142a565b611d66565b61142a565b9050919050565b6000611d9d82611d70565b9050919050565b6000611daf82611d92565b9050919050565b611dbf81611da4565b82525050565b60006040820190508181036000830152611ddf818561185c565b9050611dee6020830184611db6565b9392505050565b7f52656c61796572206e6f7420666f756e64000000000000000000000000000000600082015250565b6000611e2b60118361184b565b9150611e3682611df5565b602082019050919050565b60006020820190508181036000830152611e5a81611e1e565b9050919050565b7f416d6f756e742073686f756c642062652067726561746572207468616e20746860008201527f65207472616e73616374696f6e20616d6f756e742e0000000000000000000000602082015250565b6000611ebd60358361184b565b9150611ec882611e61565b604082019050919050565b60006020820190508181036000830152611eec81611eb0565b9050919050565b7f426964206973206c6f636b656400000000000000000000000000000000000000600082015250565b6000611f29600d8361184b565b9150611f3482611ef3565b602082019050919050565b60006020820190508181036000830152611f5881611f1c565b9050919050565b7f42696420697320616c726561647920626f756768740000000000000000000000600082015250565b6000611f9560158361184b565b9150611fa082611f5f565b602082019050919050565b60006020820190508181036000830152611fc481611f88565b9050919050565b60008190508160005260206000209050919050565b60008154611fed81611ce1565b611ff78186611d13565b94506001821660008114612012576001811461202357612056565b60ff19831686528186019350612056565b61202c85611fcb565b60005b8381101561204e5781548189015260018201915060208101905061202f565b838801955050505b50505092915050565b600061206b8284611fe0565b915081905092915050565b600060408201905061208b600083018561145c565b818103602083015261209d818461185c565b9050939250505056fea2646970667358221220765b75c195a18b75398ecb790dfdc7ab19d6b4d6f12cf427a7e852dab607ecbd64736f6c634300080a0033",
  "immutableReferences": {},
  "source": "// SPDX-License-Identifier: MIT\r\npragma solidity ^0.8.10;\r\n\r\ncontract LayerA {\r\n    // attributes of a relayer in a layer\r\n    struct RelayerA {\r\n        address relayer;\r\n        string relayerId;\r\n        string assignedBidId;\r\n        string name;\r\n    }\r\n\r\n    // attributes of a bid in a layer\r\n    struct Bid {\r\n        address sender;\r\n        address receiver;\r\n        uint256 amount;\r\n        bool locked;\r\n        bool bought;\r\n        string Id;\r\n    }\r\n\r\n    string[] private Relayers;\r\n    string[] public Bids;\r\n    mapping(string => RelayerA) public RelayersA;\r\n    mapping(string => Bid) public BidsMap;\r\n    mapping(address => string) public RelayerAdToId;\r\n    mapping(string => uint256) public lockedStakesForBidId; // Stores locked stakes for each bidId\r\n    mapping(string => string[]) public bidRelayers; // Stores bids for each relayer\r\n\r\n    event Received(address sender, uint256 amount);\r\n    event bidPlaced(address relayer, string bidId);\r\n    event relayerAdded(address relayer, string relayerId);\r\n    event bidAddedToLayer(string bidId);\r\n    event challengeResolved(string bidId, address _challenger);\r\n\r\n    // Gives the list of relayer ids present in the current layer\r\n    function getRelayers() public view returns (string[] memory) {\r\n        return Relayers;\r\n    }\r\n\r\n    // Gives the list of bid ids present in the current layer\r\n    function getBids() external view returns (string[] memory) {\r\n        return Bids;\r\n    }\r\n\r\n    function bidgetter(string memory _id) external view returns (uint256){\r\n        return lockedStakesForBidId[_id];\r\n    }\r\n\r\n    receive() external payable {\r\n        emit Received(msg.sender, msg.value);\r\n    }\r\n\r\n    // This fucntion is called by the router contract that adds relayer to a certain layer\r\n    function addRelayer(\r\n        string memory _id,\r\n        string memory _name,\r\n        address _relayer\r\n    ) external {\r\n        RelayersA[_id] = RelayerA({\r\n            relayer: _relayer,\r\n            relayerId: _id,\r\n            assignedBidId: \"null\",\r\n            name: _name\r\n        });\r\n        Relayers.push(_id);\r\n        RelayerAdToId[_relayer] = _id;\r\n        emit relayerAdded(_relayer, _id);\r\n    }\r\n\r\n    // This function is called by the router contract that adds bids to a certain layer\r\n    function addBid(\r\n        address _sender,\r\n        address _receiver,\r\n        uint256 _amount,\r\n        bool _locked,\r\n        bool _bought,\r\n        string memory _id\r\n    ) external {\r\n        BidsMap[_id] = Bid({\r\n            sender: _sender,\r\n            receiver : _receiver,\r\n            amount: _amount,\r\n            locked: _locked,\r\n            bought: _bought,\r\n            Id: _id\r\n        });\r\n        Bids.push(_id);\r\n        emit bidAddedToLayer(_id);\r\n    }\r\n\r\n    function placeBid(\r\n        string memory bidId,\r\n        address relayer,\r\n        uint256 _amount\r\n    ) public {\r\n        string memory bidIdStr = string(abi.encodePacked(bidId));\r\n        require(bytes(RelayerAdToId[relayer]).length != 0, \"Relayer not found\");\r\n        // require(RelayersA[RelayerAdToId[relayer]].assignedBidId  , \"Relayer already has a bid\");\r\n        //  require(RelayersA[RelayerAdToId[relayer]].relayer == relayer, \"Only the relayer can place bid\");\r\n        require(\r\n            _amount > BidsMap[bidIdStr].amount,\r\n            \"Amount should be greater than the transaction amount.\"\r\n        );\r\n        require(BidsMap[bidIdStr].locked == true, \"Bid is locked\");\r\n        require(BidsMap[bidIdStr].bought == false, \"Bid is already bought\");\r\n\r\n        BidsMap[bidIdStr].bought = true;\r\n        RelayersA[RelayerAdToId[relayer]].assignedBidId = bidIdStr;\r\n        bidRelayers[RelayerAdToId[relayer]].push(bidId);\r\n        lockedStakesForBidId[bidIdStr] = _amount;\r\n        emit bidPlaced(relayer, bidId);\r\n    }\r\n\r\n\r\n    function isRelayerExists(address _relayer) external view returns (bool) {\r\n        return bytes(RelayerAdToId[_relayer]).length != 0;\r\n    }\r\n\r\n    function resolveChallenge(string memory _bidId, address payable _challenger) external {\r\n        emit challengeResolved(_bidId,_challenger);\r\n    }\r\n\r\n    \r\n}\r\n",
  "sourcePath": "D:\\Interoperability\\contracts\\LayerA.sol",
  "compiler": {
    "name": "solc",
    "version": "0.8.10+commit.fc410830.Emscripten.clang"
  },
  "schemaVersion": "3.4.16",
  "updatedAt": "2024-08-14T01:17:31.012Z",
  "networkType": "ethereum",
  "devdoc": {
    "kind": "dev",
    "methods": {},
    "version": 1
  },
  "userdoc": {
    "kind": "user",
    "methods": {},
    "version": 1
  }
}