{
  "contractName": "LayerC",
  "abi": [
    {
      "anonymous": false,
      "inputs": [
        {
          "indexed": false,
          "internalType": "address",
          "name": "sender",
          "type": "address"
        },
        {
          "indexed": false,
          "internalType": "uint256",
          "name": "amount",
          "type": "uint256"
        }
      ],
      "name": "Received",
      "type": "event"
    },
    {
      "anonymous": false,
      "inputs": [
        {
          "indexed": false,
          "internalType": "string",
          "name": "bidId",
          "type": "string"
        }
      ],
      "name": "bidAddedToLayer",
      "type": "event"
    },
    {
      "anonymous": false,
      "inputs": [
        {
          "indexed": false,
          "internalType": "address",
          "name": "relayer",
          "type": "address"
        },
        {
          "indexed": false,
          "internalType": "string",
          "name": "bidId",
          "type": "string"
        }
      ],
      "name": "bidPlaced",
      "type": "event"
    },
    {
      "anonymous": false,
      "inputs": [
        {
          "indexed": false,
          "internalType": "address",
          "name": "relayer",
          "type": "address"
        },
        {
          "indexed": false,
          "internalType": "string",
          "name": "relayerId",
          "type": "string"
        }
      ],
      "name": "relayerAdded",
      "type": "event"
    },
    {
      "inputs": [
        {
          "internalType": "uint256",
          "name": "",
          "type": "uint256"
        }
      ],
      "name": "Bids",
      "outputs": [
        {
          "internalType": "string",
          "name": "",
          "type": "string"
        }
      ],
      "stateMutability": "view",
      "type": "function",
      "constant": true
    },
    {
      "inputs": [
        {
          "internalType": "string",
          "name": "",
          "type": "string"
        }
      ],
      "name": "BidsMap",
      "outputs": [
        {
          "internalType": "address",
          "name": "sender",
          "type": "address"
        },
        {
          "internalType": "address",
          "name": "receiver",
          "type": "address"
        },
        {
          "internalType": "uint256",
          "name": "amount",
          "type": "uint256"
        },
        {
          "internalType": "bool",
          "name": "locked",
          "type": "bool"
        },
        {
          "internalType": "bool",
          "name": "bought",
          "type": "bool"
        },
        {
          "internalType": "string",
          "name": "Id",
          "type": "string"
        }
      ],
      "stateMutability": "view",
      "type": "function",
      "constant": true
    },
    {
      "inputs": [
        {
          "internalType": "address",
          "name": "",
          "type": "address"
        }
      ],
      "name": "RelayerAdToId",
      "outputs": [
        {
          "internalType": "string",
          "name": "",
          "type": "string"
        }
      ],
      "stateMutability": "view",
      "type": "function",
      "constant": true
    },
    {
      "inputs": [
        {
          "internalType": "uint256",
          "name": "",
          "type": "uint256"
        }
      ],
      "name": "Relayers",
      "outputs": [
        {
          "internalType": "string",
          "name": "",
          "type": "string"
        }
      ],
      "stateMutability": "view",
      "type": "function",
      "constant": true
    },
    {
      "inputs": [
        {
          "internalType": "string",
          "name": "",
          "type": "string"
        }
      ],
      "name": "RelayersC",
      "outputs": [
        {
          "internalType": "address",
          "name": "relayer",
          "type": "address"
        },
        {
          "internalType": "string",
          "name": "relayerId",
          "type": "string"
        },
        {
          "internalType": "string",
          "name": "assignedBidId",
          "type": "string"
        },
        {
          "internalType": "string",
          "name": "name",
          "type": "string"
        }
      ],
      "stateMutability": "view",
      "type": "function",
      "constant": true
    },
    {
      "inputs": [
        {
          "internalType": "string",
          "name": "",
          "type": "string"
        },
        {
          "internalType": "uint256",
          "name": "",
          "type": "uint256"
        }
      ],
      "name": "bidRelayers",
      "outputs": [
        {
          "internalType": "string",
          "name": "",
          "type": "string"
        }
      ],
      "stateMutability": "view",
      "type": "function",
      "constant": true
    },
    {
      "inputs": [
        {
          "internalType": "string",
          "name": "",
          "type": "string"
        }
      ],
      "name": "lockedStakesForBidId",
      "outputs": [
        {
          "internalType": "uint256",
          "name": "",
          "type": "uint256"
        }
      ],
      "stateMutability": "view",
      "type": "function",
      "constant": true
    },
    {
      "inputs": [],
      "name": "getRelayers",
      "outputs": [
        {
          "internalType": "string[]",
          "name": "",
          "type": "string[]"
        }
      ],
      "stateMutability": "view",
      "type": "function",
      "constant": true
    },
    {
      "inputs": [],
      "name": "getBids",
      "outputs": [
        {
          "internalType": "string[]",
          "name": "",
          "type": "string[]"
        }
      ],
      "stateMutability": "view",
      "type": "function",
      "constant": true
    },
    {
      "inputs": [
        {
          "internalType": "string",
          "name": "_id",
          "type": "string"
        }
      ],
      "name": "bidgetter",
      "outputs": [
        {
          "internalType": "uint256",
          "name": "",
          "type": "uint256"
        }
      ],
      "stateMutability": "view",
      "type": "function",
      "constant": true
    },
    {
      "inputs": [
        {
          "internalType": "string",
          "name": "_id",
          "type": "string"
        },
        {
          "internalType": "string",
          "name": "_name",
          "type": "string"
        },
        {
          "internalType": "address",
          "name": "_relayer",
          "type": "address"
        }
      ],
      "name": "addRelayer",
      "outputs": [],
      "stateMutability": "nonpayable",
      "type": "function"
    },
    {
      "inputs": [
        {
          "internalType": "address",
          "name": "_sender",
          "type": "address"
        },
        {
          "internalType": "address",
          "name": "_receiver",
          "type": "address"
        },
        {
          "internalType": "uint256",
          "name": "_amount",
          "type": "uint256"
        },
        {
          "internalType": "bool",
          "name": "_locked",
          "type": "bool"
        },
        {
          "internalType": "bool",
          "name": "_bought",
          "type": "bool"
        },
        {
          "internalType": "string",
          "name": "_id",
          "type": "string"
        }
      ],
      "name": "addBid",
      "outputs": [],
      "stateMutability": "nonpayable",
      "type": "function"
    },
    {
      "inputs": [
        {
          "internalType": "string",
          "name": "bidId",
          "type": "string"
        },
        {
          "internalType": "address",
          "name": "relayer",
          "type": "address"
        },
        {
          "internalType": "uint256",
          "name": "_amount",
          "type": "uint256"
        }
      ],
      "name": "placeBid",
      "outputs": [],
      "stateMutability": "nonpayable",
      "type": "function"
    },
    {
      "inputs": [
        {
          "internalType": "address",
          "name": "_relayer",
          "type": "address"
        }
      ],
      "name": "isRelayerExists",
      "outputs": [
        {
          "internalType": "bool",
          "name": "",
          "type": "bool"
        }
      ],
      "stateMutability": "view",
      "type": "function",
      "constant": true
    }
  ],
  "bytecode": "0x608060405234801561001057600080fd5b50612079806100206000396000f3fe608060405234801561001057600080fd5b50600436106100ea5760003560e01c806396d4f4681161008c578063b81c78ec11610066578063b81c78ec14610289578063bc9ebbcc146102a7578063d401fc90146102d7578063db70e90d14610307576100ea565b806396d4f4681461020a578063a5133e0e1461023d578063b2e1091e14610259576100ea565b8063512ffb9f116100c8578063512ffb9f146101725780636613e824146101a257806374cd0c40146101be5780638142ce61146101ee576100ea565b8063136c67ff146100ef578063179ff4b21461011f578063277f67e71461013d575b600080fd5b6101096004803603810190610104919061151f565b610337565b6040516101169190611567565b60405180910390f35b61012761038f565b60405161013491906116dd565b60405180910390f35b61015760048036038101906101529190611834565b610468565b604051610169969594939291906118ef565b60405180910390f35b61018c60048036038101906101879190611983565b61059c565b60405161019991906119b0565b60405180910390f35b6101bc60048036038101906101b791906119fe565b610648565b005b6101d860048036038101906101d39190611983565b610836565b6040516101e591906119b0565b60405180910390f35b61020860048036038101906102039190611aa7565b6108e2565b005b610224600480360381019061021f9190611834565b610d75565b6040516102349493929190611b16565b60405180910390f35b61025760048036038101906102529190611b70565b610f73565b005b610273600480360381019061026e919061151f565b61116c565b60405161028091906119b0565b60405180910390f35b61029161120c565b60405161029e91906116dd565b60405180910390f35b6102c160048036038101906102bc9190611bfb565b6112e5565b6040516102ce91906119b0565b60405180910390f35b6102f160048036038101906102ec9190611834565b6113b4565b6040516102fe9190611c57565b60405180910390f35b610321600480360381019061031c9190611834565b6113e2565b60405161032e9190611c57565b60405180910390f35b600080600460008473ffffffffffffffffffffffffffffffffffffffff1673ffffffffffffffffffffffffffffffffffffffff168152602001908152602001600020805461038490611ca1565b905014159050919050565b60606000805480602002602001604051908101604052809291908181526020016000905b8282101561045f5783829060005260206000200180546103d290611ca1565b80601f01602080910402602001604051908101604052809291908181526020018280546103fe90611ca1565b801561044b5780601f106104205761010080835404028352916020019161044b565b820191906000526020600020905b81548152906001019060200180831161042e57829003601f168201915b5050505050815260200190600101906103b3565b50505050905090565b6003818051602081018201805184825260208301602085012081835280955050505050506000915090508060000160009054906101000a900473ffffffffffffffffffffffffffffffffffffffff16908060010160009054906101000a900473ffffffffffffffffffffffffffffffffffffffff16908060020154908060030160009054906101000a900460ff16908060030160019054906101000a900460ff169080600401805461051990611ca1565b80601f016020809104026020016040519081016040528092919081815260200182805461054590611ca1565b80156105925780601f1061056757610100808354040283529160200191610592565b820191906000526020600020905b81548152906001019060200180831161057557829003601f168201915b5050505050905086565b600081815481106105ac57600080fd5b9060005260206000200160009150905080546105c790611ca1565b80601f01602080910402602001604051908101604052809291908181526020018280546105f390611ca1565b80156106405780601f1061061557610100808354040283529160200191610640565b820191906000526020600020905b81548152906001019060200180831161062357829003601f168201915b505050505081565b6040518060c001604052808773ffffffffffffffffffffffffffffffffffffffff1681526020018673ffffffffffffffffffffffffffffffffffffffff16815260200185815260200184151581526020018315158152602001828152506003826040516106b59190611d0f565b908152602001604051809103902060008201518160000160006101000a81548173ffffffffffffffffffffffffffffffffffffffff021916908373ffffffffffffffffffffffffffffffffffffffff16021790555060208201518160010160006101000a81548173ffffffffffffffffffffffffffffffffffffffff021916908373ffffffffffffffffffffffffffffffffffffffff1602179055506040820151816002015560608201518160030160006101000a81548160ff02191690831515021790555060808201518160030160016101000a81548160ff02191690831515021790555060a08201518160040190805190602001906107b792919061140a565b509050506001819080600181540180825580915050600190039060005260206000200160009091909190915090805190602001906107f692919061140a565b507f0c5cc8af0e42171b1a4e13abbfa31fdf34d981ae13e5e6e4ab4d94b69b994fc18160405161082691906119b0565b60405180910390a1505050505050565b6001818154811061084657600080fd5b90600052602060002001600091509050805461086190611ca1565b80601f016020809104026020016040519081016040528092919081815260200182805461088d90611ca1565b80156108da5780601f106108af576101008083540402835291602001916108da565b820191906000526020600020905b8154815290600101906020018083116108bd57829003601f168201915b505050505081565b6000836040516020016108f59190611d0f565b60405160208183030381529060405290506000600460008573ffffffffffffffffffffffffffffffffffffffff1673ffffffffffffffffffffffffffffffffffffffff168152602001908152602001600020805461095290611ca1565b90501415610995576040517f08c379a000000000000000000000000000000000000000000000000000000000815260040161098c90611d72565b60405180910390fd5b3373ffffffffffffffffffffffffffffffffffffffff166002600460008673ffffffffffffffffffffffffffffffffffffffff1673ffffffffffffffffffffffffffffffffffffffff1681526020019081526020016000206040516109fa9190611e26565b908152602001604051809103902060000160009054906101000a900473ffffffffffffffffffffffffffffffffffffffff1673ffffffffffffffffffffffffffffffffffffffff1614610a82576040517f08c379a0000000000000000000000000000000000000000000000000000000008152600401610a7990611e89565b60405180910390fd5b600381604051610a929190611d0f565b9081526020016040518091039020600201548211610ae5576040517f08c379a0000000000000000000000000000000000000000000000000000000008152600401610adc90611f1b565b60405180910390fd5b60001515600382604051610af99190611d0f565b908152602001604051809103902060030160009054906101000a900460ff16151514610b5a576040517f08c379a0000000000000000000000000000000000000000000000000000000008152600401610b5190611f87565b60405180910390fd5b60001515600382604051610b6e9190611d0f565b908152602001604051809103902060030160019054906101000a900460ff16151514610bcf576040517f08c379a0000000000000000000000000000000000000000000000000000000008152600401610bc690611ff3565b60405180910390fd5b6001600382604051610be19190611d0f565b908152602001604051809103902060030160016101000a81548160ff021916908315150217905550806002600460008673ffffffffffffffffffffffffffffffffffffffff1673ffffffffffffffffffffffffffffffffffffffff168152602001908152602001600020604051610c589190611e26565b90815260200160405180910390206002019080519060200190610c7c92919061140a565b506006600460008573ffffffffffffffffffffffffffffffffffffffff1673ffffffffffffffffffffffffffffffffffffffff168152602001908152602001600020604051610ccb9190611e26565b908152602001604051809103902084908060018154018082558091505060019003906000526020600020016000909190919091509080519060200190610d1292919061140a565b5081600582604051610d249190611d0f565b9081526020016040518091039020819055507fb69936364f93e1642cb505be502966b959556781c3a08a939e05614380834e998385604051610d67929190612013565b60405180910390a150505050565b6002818051602081018201805184825260208301602085012081835280955050505050506000915090508060000160009054906101000a900473ffffffffffffffffffffffffffffffffffffffff1690806001018054610dd490611ca1565b80601f0160208091040260200160405190810160405280929190818152602001828054610e0090611ca1565b8015610e4d5780601f10610e2257610100808354040283529160200191610e4d565b820191906000526020600020905b815481529060010190602001808311610e3057829003601f168201915b505050505090806002018054610e6290611ca1565b80601f0160208091040260200160405190810160405280929190818152602001828054610e8e90611ca1565b8015610edb5780601f10610eb057610100808354040283529160200191610edb565b820191906000526020600020905b815481529060010190602001808311610ebe57829003601f168201915b505050505090806003018054610ef090611ca1565b80601f0160208091040260200160405190810160405280929190818152602001828054610f1c90611ca1565b8015610f695780601f10610f3e57610100808354040283529160200191610f69565b820191906000526020600020905b815481529060010190602001808311610f4c57829003601f168201915b5050505050905084565b60405180608001604052803373ffffffffffffffffffffffffffffffffffffffff1681526020018481526020016040518060400160405280600481526020017f6e756c6c00000000000000000000000000000000000000000000000000000000815250815260200183815250600284604051610fef9190611d0f565b908152602001604051809103902060008201518160000160006101000a81548173ffffffffffffffffffffffffffffffffffffffff021916908373ffffffffffffffffffffffffffffffffffffffff160217905550602082015181600101908051906020019061106092919061140a565b50604082015181600201908051906020019061107d92919061140a565b50606082015181600301908051906020019061109a92919061140a565b509050506000839080600181540180825580915050600190039060005260206000200160009091909190915090805190602001906110d992919061140a565b5082600460008373ffffffffffffffffffffffffffffffffffffffff1673ffffffffffffffffffffffffffffffffffffffff168152602001908152602001600020908051906020019061112d92919061140a565b507f6972234f8c23f8cbf4b5474d6b4b96b1d11dc30a84f5048f4953a85487b8f783818460405161115f929190612013565b60405180910390a1505050565b6004602052806000526040600020600091509050805461118b90611ca1565b80601f01602080910402602001604051908101604052809291908181526020018280546111b790611ca1565b80156112045780601f106111d957610100808354040283529160200191611204565b820191906000526020600020905b8154815290600101906020018083116111e757829003601f168201915b505050505081565b60606001805480602002602001604051908101604052809291908181526020016000905b828210156112dc57838290600052602060002001805461124f90611ca1565b80601f016020809104026020016040519081016040528092919081815260200182805461127b90611ca1565b80156112c85780601f1061129d576101008083540402835291602001916112c8565b820191906000526020600020905b8154815290600101906020018083116112ab57829003601f168201915b505050505081526020019060010190611230565b50505050905090565b600682805160208101820180518482526020830160208501208183528095505050505050818154811061131757600080fd5b9060005260206000200160009150915050805461133390611ca1565b80601f016020809104026020016040519081016040528092919081815260200182805461135f90611ca1565b80156113ac5780601f10611381576101008083540402835291602001916113ac565b820191906000526020600020905b81548152906001019060200180831161138f57829003601f168201915b505050505081565b6005818051602081018201805184825260208301602085012081835280955050505050506000915090505481565b60006005826040516113f49190611d0f565b9081526020016040518091039020549050919050565b82805461141690611ca1565b90600052602060002090601f016020900481019282611438576000855561147f565b82601f1061145157805160ff191683800117855561147f565b8280016001018555821561147f579182015b8281111561147e578251825591602001919060010190611463565b5b50905061148c9190611490565b5090565b5b808211156114a9576000816000905550600101611491565b5090565b6000604051905090565b600080fd5b600080fd5b600073ffffffffffffffffffffffffffffffffffffffff82169050919050565b60006114ec826114c1565b9050919050565b6114fc816114e1565b811461150757600080fd5b50565b600081359050611519816114f3565b92915050565b600060208284031215611535576115346114b7565b5b60006115438482850161150a565b91505092915050565b60008115159050919050565b6115618161154c565b82525050565b600060208201905061157c6000830184611558565b92915050565b600081519050919050565b600082825260208201905092915050565b6000819050602082019050919050565b600081519050919050565b600082825260208201905092915050565b60005b838110156115e85780820151818401526020810190506115cd565b838111156115f7576000848401525b50505050565b6000601f19601f8301169050919050565b6000611619826115ae565b61162381856115b9565b93506116338185602086016115ca565b61163c816115fd565b840191505092915050565b6000611653838361160e565b905092915050565b6000602082019050919050565b600061167382611582565b61167d818561158d565b93508360208202850161168f8561159e565b8060005b858110156116cb57848403895281516116ac8582611647565b94506116b78361165b565b925060208a01995050600181019050611693565b50829750879550505050505092915050565b600060208201905081810360008301526116f78184611668565b905092915050565b600080fd5b600080fd5b7f4e487b7100000000000000000000000000000000000000000000000000000000600052604160045260246000fd5b611741826115fd565b810181811067ffffffffffffffff821117156117605761175f611709565b5b80604052505050565b60006117736114ad565b905061177f8282611738565b919050565b600067ffffffffffffffff82111561179f5761179e611709565b5b6117a8826115fd565b9050602081019050919050565b82818337600083830152505050565b60006117d76117d284611784565b611769565b9050828152602081018484840111156117f3576117f2611704565b5b6117fe8482856117b5565b509392505050565b600082601f83011261181b5761181a6116ff565b5b813561182b8482602086016117c4565b91505092915050565b60006020828403121561184a576118496114b7565b5b600082013567ffffffffffffffff811115611868576118676114bc565b5b61187484828501611806565b91505092915050565b611886816114e1565b82525050565b6000819050919050565b61189f8161188c565b82525050565b600082825260208201905092915050565b60006118c1826115ae565b6118cb81856118a5565b93506118db8185602086016115ca565b6118e4816115fd565b840191505092915050565b600060c082019050611904600083018961187d565b611911602083018861187d565b61191e6040830187611896565b61192b6060830186611558565b6119386080830185611558565b81810360a083015261194a81846118b6565b9050979650505050505050565b6119608161188c565b811461196b57600080fd5b50565b60008135905061197d81611957565b92915050565b600060208284031215611999576119986114b7565b5b60006119a78482850161196e565b91505092915050565b600060208201905081810360008301526119ca81846118b6565b905092915050565b6119db8161154c565b81146119e657600080fd5b50565b6000813590506119f8816119d2565b92915050565b60008060008060008060c08789031215611a1b57611a1a6114b7565b5b6000611a2989828a0161150a565b9650506020611a3a89828a0161150a565b9550506040611a4b89828a0161196e565b9450506060611a5c89828a016119e9565b9350506080611a6d89828a016119e9565b92505060a087013567ffffffffffffffff811115611a8e57611a8d6114bc565b5b611a9a89828a01611806565b9150509295509295509295565b600080600060608486031215611ac057611abf6114b7565b5b600084013567ffffffffffffffff811115611ade57611add6114bc565b5b611aea86828701611806565b9350506020611afb8682870161150a565b9250506040611b0c8682870161196e565b9150509250925092565b6000608082019050611b2b600083018761187d565b8181036020830152611b3d81866118b6565b90508181036040830152611b5181856118b6565b90508181036060830152611b6581846118b6565b905095945050505050565b600080600060608486031215611b8957611b886114b7565b5b600084013567ffffffffffffffff811115611ba757611ba66114bc565b5b611bb386828701611806565b935050602084013567ffffffffffffffff811115611bd457611bd36114bc565b5b611be086828701611806565b9250506040611bf18682870161150a565b9150509250925092565b60008060408385031215611c1257611c116114b7565b5b600083013567ffffffffffffffff811115611c3057611c2f6114bc565b5b611c3c85828601611806565b9250506020611c4d8582860161196e565b9150509250929050565b6000602082019050611c6c6000830184611896565b92915050565b7f4e487b7100000000000000000000000000000000000000000000000000000000600052602260045260246000fd5b60006002820490506001821680611cb957607f821691505b60208210811415611ccd57611ccc611c72565b5b50919050565b600081905092915050565b6000611ce9826115ae565b611cf38185611cd3565b9350611d038185602086016115ca565b80840191505092915050565b6000611d1b8284611cde565b915081905092915050565b7f52656c61796572206e6f7420666f756e64000000000000000000000000000000600082015250565b6000611d5c6011836118a5565b9150611d6782611d26565b602082019050919050565b60006020820190508181036000830152611d8b81611d4f565b9050919050565b60008190508160005260206000209050919050565b60008154611db481611ca1565b611dbe8186611cd3565b94506001821660008114611dd95760018114611dea57611e1d565b60ff19831686528186019350611e1d565b611df385611d92565b60005b83811015611e1557815481890152600182019150602081019050611df6565b838801955050505b50505092915050565b6000611e328284611da7565b915081905092915050565b7f4f6e6c79207468652072656c617965722063616e20706c616365206269640000600082015250565b6000611e73601e836118a5565b9150611e7e82611e3d565b602082019050919050565b60006020820190508181036000830152611ea281611e66565b9050919050565b7f416d6f756e742073686f756c642062652067726561746572207468616e20746860008201527f65207472616e73616374696f6e20616d6f756e742e0000000000000000000000602082015250565b6000611f056035836118a5565b9150611f1082611ea9565b604082019050919050565b60006020820190508181036000830152611f3481611ef8565b9050919050565b7f426964206973206c6f636b656400000000000000000000000000000000000000600082015250565b6000611f71600d836118a5565b9150611f7c82611f3b565b602082019050919050565b60006020820190508181036000830152611fa081611f64565b9050919050565b7f42696420697320616c726561647920626f756768740000000000000000000000600082015250565b6000611fdd6015836118a5565b9150611fe882611fa7565b602082019050919050565b6000602082019050818103600083015261200c81611fd0565b9050919050565b6000604082019050612028600083018561187d565b818103602083015261203a81846118b6565b9050939250505056fea2646970667358221220c14931f7e6b19ba5abd48c185f8e92534352f76dc9217619f0222d419f8c35a864736f6c634300080a0033",
  "immutableReferences": {},
  "source": "// SPDX-License-Identifier: MIT\r\npragma solidity ^0.8.10;\r\n\r\n\r\ncontract LayerC{\r\n\r\n\r\n     struct RelayerC{\r\n        address relayer;\r\n        string relayerId;\r\n        string assignedBidId;\r\n        string name;\r\n    }\r\n     struct Bid {\r\n        address sender;\r\n        address receiver;\r\n        uint256 amount;\r\n        bool locked;\r\n        bool bought;\r\n        string Id;\r\n    }\r\n    string[] public Relayers;\r\n    string[] public Bids;\r\n    mapping (string => RelayerC) public RelayersC;\r\n    mapping (string => Bid) public BidsMap;\r\n    mapping (address => string) public RelayerAdToId;\r\n    mapping(string => uint256) public lockedStakesForBidId; // Stores locked stakes for each bidId\r\n    mapping(string => string[]) public bidRelayers; // Stores bids for each relayer\r\n\r\n\r\n\r\n\r\n    event Received(address sender, uint256 amount);\r\n    event bidPlaced(address relayer, string bidId);\r\n    event relayerAdded(address relayer, string relayerId);\r\n    event bidAddedToLayer(string bidId);\r\n\r\n\r\n\r\n    function getRelayers() public view returns (string[] memory){\r\n        return Relayers;\r\n    }\r\n    function getBids() public view returns (string[] memory){\r\n        return Bids;\r\n    }\r\n\r\n    function bidgetter(string memory _id) external view returns (uint256){\r\n        return lockedStakesForBidId[_id];\r\n    }\r\n\r\n    function addRelayer(string memory _id,string memory _name,address _relayer) external  {\r\n        RelayersC[_id] = RelayerC({\r\n            relayer : msg.sender, \r\n            relayerId : _id, \r\n            assignedBidId : \"null\", \r\n            name : _name\r\n        });\r\n        Relayers.push(_id);\r\n        RelayerAdToId[_relayer] = _id;\r\n        emit relayerAdded(_relayer, _id);\r\n\r\n        \r\n\r\n    }\r\n     function addBid(address _sender,address _receiver, uint256 _amount, bool _locked , bool _bought , string memory _id) external  {\r\n        BidsMap[_id] = Bid({\r\n            sender : _sender, \r\n            receiver : _receiver,\r\n            amount : _amount, \r\n            locked : _locked, \r\n            bought : _bought, \r\n            Id : _id\r\n        });\r\n        Bids.push(_id);\r\n        emit bidAddedToLayer(_id);\r\n\r\n\r\n    }\r\n\r\n\r\n        function placeBid(string memory bidId,address relayer, uint256 _amount) public {\r\n        string memory bidIdStr = string(abi.encodePacked(bidId));\r\n        require(bytes(RelayerAdToId[relayer]).length != 0, \"Relayer not found\");\r\n        // require(RelayersA[RelayerAdToId[relayer]].assignedBidId  , \"Relayer already has a bid\");\r\n         require(RelayersC[RelayerAdToId[relayer]].relayer == msg.sender, \"Only the relayer can place bid\");\r\n         require(_amount > BidsMap[bidIdStr].amount, \"Amount should be greater than the transaction amount.\");\r\n         require(BidsMap[bidIdStr].locked == false, \"Bid is locked\");\r\n         require(BidsMap[bidIdStr].bought == false, \"Bid is already bought\");\r\n         \r\n         BidsMap[bidIdStr].bought = true;\r\n         RelayersC[RelayerAdToId[relayer]].assignedBidId = bidIdStr;\r\n         bidRelayers[RelayerAdToId[relayer]].push(bidId);\r\n         lockedStakesForBidId[bidIdStr] = _amount;\r\n         emit bidPlaced(relayer, bidId); \r\n\r\n    }\r\n\r\n    function isRelayerExists(address _relayer) public view returns (bool) {\r\n        return bytes(RelayerAdToId[_relayer]).length != 0;\r\n    }\r\n}",
  "sourcePath": "D:\\Interoperability\\contracts\\LayerC.sol",
  "compiler": {
    "name": "solc",
    "version": "0.8.10+commit.fc410830.Emscripten.clang"
  },
  "schemaVersion": "3.4.16",
  "updatedAt": "2024-08-14T01:17:31.052Z",
  "networkType": "ethereum",
  "devdoc": {
    "kind": "dev",
    "methods": {},
    "version": 1
  },
  "userdoc": {
    "kind": "user",
    "methods": {},
    "version": 1
  }
}