{
  "contractName": "LayerB",
  "abi": [
    {
      "anonymous": false,
      "inputs": [
        {
          "indexed": false,
          "internalType": "address",
          "name": "sender",
          "type": "address"
        },
        {
          "indexed": false,
          "internalType": "uint256",
          "name": "amount",
          "type": "uint256"
        }
      ],
      "name": "Received",
      "type": "event"
    },
    {
      "anonymous": false,
      "inputs": [
        {
          "indexed": false,
          "internalType": "string",
          "name": "bidId",
          "type": "string"
        }
      ],
      "name": "bidAddedToLayer",
      "type": "event"
    },
    {
      "anonymous": false,
      "inputs": [
        {
          "indexed": false,
          "internalType": "address",
          "name": "relayer",
          "type": "address"
        },
        {
          "indexed": false,
          "internalType": "string",
          "name": "bidId",
          "type": "string"
        }
      ],
      "name": "bidPlaced",
      "type": "event"
    },
    {
      "anonymous": false,
      "inputs": [
        {
          "indexed": false,
          "internalType": "address",
          "name": "relayer",
          "type": "address"
        },
        {
          "indexed": false,
          "internalType": "string",
          "name": "relayerId",
          "type": "string"
        }
      ],
      "name": "relayerAdded",
      "type": "event"
    },
    {
      "inputs": [
        {
          "internalType": "uint256",
          "name": "",
          "type": "uint256"
        }
      ],
      "name": "Bids",
      "outputs": [
        {
          "internalType": "string",
          "name": "",
          "type": "string"
        }
      ],
      "stateMutability": "view",
      "type": "function",
      "constant": true
    },
    {
      "inputs": [
        {
          "internalType": "string",
          "name": "",
          "type": "string"
        }
      ],
      "name": "BidsMap",
      "outputs": [
        {
          "internalType": "address",
          "name": "sender",
          "type": "address"
        },
        {
          "internalType": "address",
          "name": "receiver",
          "type": "address"
        },
        {
          "internalType": "uint256",
          "name": "amount",
          "type": "uint256"
        },
        {
          "internalType": "bool",
          "name": "locked",
          "type": "bool"
        },
        {
          "internalType": "bool",
          "name": "bought",
          "type": "bool"
        },
        {
          "internalType": "string",
          "name": "Id",
          "type": "string"
        }
      ],
      "stateMutability": "view",
      "type": "function",
      "constant": true
    },
    {
      "inputs": [
        {
          "internalType": "address",
          "name": "",
          "type": "address"
        }
      ],
      "name": "RelayerAdToId",
      "outputs": [
        {
          "internalType": "string",
          "name": "",
          "type": "string"
        }
      ],
      "stateMutability": "view",
      "type": "function",
      "constant": true
    },
    {
      "inputs": [
        {
          "internalType": "uint256",
          "name": "",
          "type": "uint256"
        }
      ],
      "name": "Relayers",
      "outputs": [
        {
          "internalType": "string",
          "name": "",
          "type": "string"
        }
      ],
      "stateMutability": "view",
      "type": "function",
      "constant": true
    },
    {
      "inputs": [
        {
          "internalType": "string",
          "name": "",
          "type": "string"
        }
      ],
      "name": "RelayersB",
      "outputs": [
        {
          "internalType": "address",
          "name": "relayer",
          "type": "address"
        },
        {
          "internalType": "string",
          "name": "relayerId",
          "type": "string"
        },
        {
          "internalType": "string",
          "name": "assignedBidId",
          "type": "string"
        },
        {
          "internalType": "string",
          "name": "name",
          "type": "string"
        }
      ],
      "stateMutability": "view",
      "type": "function",
      "constant": true
    },
    {
      "inputs": [
        {
          "internalType": "string",
          "name": "",
          "type": "string"
        },
        {
          "internalType": "uint256",
          "name": "",
          "type": "uint256"
        }
      ],
      "name": "bidRelayers",
      "outputs": [
        {
          "internalType": "string",
          "name": "",
          "type": "string"
        }
      ],
      "stateMutability": "view",
      "type": "function",
      "constant": true
    },
    {
      "inputs": [
        {
          "internalType": "string",
          "name": "",
          "type": "string"
        }
      ],
      "name": "lockedStakesForBidId",
      "outputs": [
        {
          "internalType": "uint256",
          "name": "",
          "type": "uint256"
        }
      ],
      "stateMutability": "view",
      "type": "function",
      "constant": true
    },
    {
      "stateMutability": "payable",
      "type": "receive",
      "payable": true
    },
    {
      "inputs": [],
      "name": "getRelayers",
      "outputs": [
        {
          "internalType": "string[]",
          "name": "",
          "type": "string[]"
        }
      ],
      "stateMutability": "view",
      "type": "function",
      "constant": true
    },
    {
      "inputs": [],
      "name": "getBids",
      "outputs": [
        {
          "internalType": "string[]",
          "name": "",
          "type": "string[]"
        }
      ],
      "stateMutability": "view",
      "type": "function",
      "constant": true
    },
    {
      "inputs": [
        {
          "internalType": "string",
          "name": "_id",
          "type": "string"
        }
      ],
      "name": "bidgetter",
      "outputs": [
        {
          "internalType": "uint256",
          "name": "",
          "type": "uint256"
        }
      ],
      "stateMutability": "view",
      "type": "function",
      "constant": true
    },
    {
      "inputs": [
        {
          "internalType": "string",
          "name": "_id",
          "type": "string"
        },
        {
          "internalType": "string",
          "name": "_name",
          "type": "string"
        },
        {
          "internalType": "address",
          "name": "_relayer",
          "type": "address"
        }
      ],
      "name": "addRelayer",
      "outputs": [],
      "stateMutability": "nonpayable",
      "type": "function"
    },
    {
      "inputs": [
        {
          "internalType": "address",
          "name": "_sender",
          "type": "address"
        },
        {
          "internalType": "address",
          "name": "_receiver",
          "type": "address"
        },
        {
          "internalType": "uint256",
          "name": "_amount",
          "type": "uint256"
        },
        {
          "internalType": "bool",
          "name": "_locked",
          "type": "bool"
        },
        {
          "internalType": "bool",
          "name": "_bought",
          "type": "bool"
        },
        {
          "internalType": "string",
          "name": "_id",
          "type": "string"
        }
      ],
      "name": "addBid",
      "outputs": [],
      "stateMutability": "nonpayable",
      "type": "function"
    },
    {
      "inputs": [
        {
          "internalType": "string",
          "name": "bidId",
          "type": "string"
        },
        {
          "internalType": "address",
          "name": "relayer",
          "type": "address"
        },
        {
          "internalType": "uint256",
          "name": "_amount",
          "type": "uint256"
        }
      ],
      "name": "placeBid",
      "outputs": [],
      "stateMutability": "nonpayable",
      "type": "function"
    },
    {
      "inputs": [
        {
          "internalType": "address",
          "name": "_relayer",
          "type": "address"
        }
      ],
      "name": "isRelayerExists",
      "outputs": [
        {
          "internalType": "bool",
          "name": "",
          "type": "bool"
        }
      ],
      "stateMutability": "view",
      "type": "function",
      "constant": true
    }
  ],
  "bytecode": "0x608060405234801561001057600080fd5b5061218f806100206000396000f3fe6080604052600436106100e15760003560e01c806393201b9e1161007f578063b81c78ec11610059578063b81c78ec14610342578063bc9ebbcc1461036d578063d401fc90146103aa578063db70e90d146103e757610121565b806393201b9e1461029c578063a5133e0e146102dc578063b2e1091e1461030557610121565b8063512ffb9f116100bb578063512ffb9f146101d05780636613e8241461020d57806374cd0c40146102365780638142ce611461027357610121565b8063136c67ff14610126578063179ff4b214610163578063277f67e71461018e57610121565b36610121577f88a5966d370b9919b20f3e2c13ff65706f196a4e32cc2c12bf57088f8852587433346040516101179291906115f4565b60405180910390a1005b600080fd5b34801561013257600080fd5b5061014d6004803603810190610148919061165d565b610424565b60405161015a91906116a5565b60405180910390f35b34801561016f57600080fd5b5061017861047c565b604051610185919061181b565b60405180910390f35b34801561019a57600080fd5b506101b560048036038101906101b09190611972565b610555565b6040516101c796959493929190611a05565b60405180910390f35b3480156101dc57600080fd5b506101f760048036038101906101f29190611a99565b610689565b6040516102049190611ac6565b60405180910390f35b34801561021957600080fd5b50610234600480360381019061022f9190611b14565b610735565b005b34801561024257600080fd5b5061025d60048036038101906102589190611a99565b610923565b60405161026a9190611ac6565b60405180910390f35b34801561027f57600080fd5b5061029a60048036038101906102959190611bbd565b6109cf565b005b3480156102a857600080fd5b506102c360048036038101906102be9190611972565b610e62565b6040516102d39493929190611c2c565b60405180910390f35b3480156102e857600080fd5b5061030360048036038101906102fe9190611c86565b611060565b005b34801561031157600080fd5b5061032c6004803603810190610327919061165d565b611259565b6040516103399190611ac6565b60405180910390f35b34801561034e57600080fd5b506103576112f9565b604051610364919061181b565b60405180910390f35b34801561037957600080fd5b50610394600480360381019061038f9190611d11565b6113d2565b6040516103a19190611ac6565b60405180910390f35b3480156103b657600080fd5b506103d160048036038101906103cc9190611972565b6114a1565b6040516103de9190611d6d565b60405180910390f35b3480156103f357600080fd5b5061040e60048036038101906104099190611972565b6114cf565b60405161041b9190611d6d565b60405180910390f35b600080600460008473ffffffffffffffffffffffffffffffffffffffff1673ffffffffffffffffffffffffffffffffffffffff168152602001908152602001600020805461047190611db7565b905014159050919050565b60606000805480602002602001604051908101604052809291908181526020016000905b8282101561054c5783829060005260206000200180546104bf90611db7565b80601f01602080910402602001604051908101604052809291908181526020018280546104eb90611db7565b80156105385780601f1061050d57610100808354040283529160200191610538565b820191906000526020600020905b81548152906001019060200180831161051b57829003601f168201915b5050505050815260200190600101906104a0565b50505050905090565b6003818051602081018201805184825260208301602085012081835280955050505050506000915090508060000160009054906101000a900473ffffffffffffffffffffffffffffffffffffffff16908060010160009054906101000a900473ffffffffffffffffffffffffffffffffffffffff16908060020154908060030160009054906101000a900460ff16908060030160019054906101000a900460ff169080600401805461060690611db7565b80601f016020809104026020016040519081016040528092919081815260200182805461063290611db7565b801561067f5780601f106106545761010080835404028352916020019161067f565b820191906000526020600020905b81548152906001019060200180831161066257829003601f168201915b5050505050905086565b6000818154811061069957600080fd5b9060005260206000200160009150905080546106b490611db7565b80601f01602080910402602001604051908101604052809291908181526020018280546106e090611db7565b801561072d5780601f106107025761010080835404028352916020019161072d565b820191906000526020600020905b81548152906001019060200180831161071057829003601f168201915b505050505081565b6040518060c001604052808773ffffffffffffffffffffffffffffffffffffffff1681526020018673ffffffffffffffffffffffffffffffffffffffff16815260200185815260200184151581526020018315158152602001828152506003826040516107a29190611e25565b908152602001604051809103902060008201518160000160006101000a81548173ffffffffffffffffffffffffffffffffffffffff021916908373ffffffffffffffffffffffffffffffffffffffff16021790555060208201518160010160006101000a81548173ffffffffffffffffffffffffffffffffffffffff021916908373ffffffffffffffffffffffffffffffffffffffff1602179055506040820151816002015560608201518160030160006101000a81548160ff02191690831515021790555060808201518160030160016101000a81548160ff02191690831515021790555060a08201518160040190805190602001906108a49291906114f7565b509050506001819080600181540180825580915050600190039060005260206000200160009091909190915090805190602001906108e39291906114f7565b507f0c5cc8af0e42171b1a4e13abbfa31fdf34d981ae13e5e6e4ab4d94b69b994fc1816040516109139190611ac6565b60405180910390a1505050505050565b6001818154811061093357600080fd5b90600052602060002001600091509050805461094e90611db7565b80601f016020809104026020016040519081016040528092919081815260200182805461097a90611db7565b80156109c75780601f1061099c576101008083540402835291602001916109c7565b820191906000526020600020905b8154815290600101906020018083116109aa57829003601f168201915b505050505081565b6000836040516020016109e29190611e25565b60405160208183030381529060405290506000600460008573ffffffffffffffffffffffffffffffffffffffff1673ffffffffffffffffffffffffffffffffffffffff1681526020019081526020016000208054610a3f90611db7565b90501415610a82576040517f08c379a0000000000000000000000000000000000000000000000000000000008152600401610a7990611e88565b60405180910390fd5b3373ffffffffffffffffffffffffffffffffffffffff166002600460008673ffffffffffffffffffffffffffffffffffffffff1673ffffffffffffffffffffffffffffffffffffffff168152602001908152602001600020604051610ae79190611f3c565b908152602001604051809103902060000160009054906101000a900473ffffffffffffffffffffffffffffffffffffffff1673ffffffffffffffffffffffffffffffffffffffff1614610b6f576040517f08c379a0000000000000000000000000000000000000000000000000000000008152600401610b6690611f9f565b60405180910390fd5b600381604051610b7f9190611e25565b9081526020016040518091039020600201548211610bd2576040517f08c379a0000000000000000000000000000000000000000000000000000000008152600401610bc990612031565b60405180910390fd5b60001515600382604051610be69190611e25565b908152602001604051809103902060030160009054906101000a900460ff16151514610c47576040517f08c379a0000000000000000000000000000000000000000000000000000000008152600401610c3e9061209d565b60405180910390fd5b60001515600382604051610c5b9190611e25565b908152602001604051809103902060030160019054906101000a900460ff16151514610cbc576040517f08c379a0000000000000000000000000000000000000000000000000000000008152600401610cb390612109565b60405180910390fd5b6001600382604051610cce9190611e25565b908152602001604051809103902060030160016101000a81548160ff021916908315150217905550806002600460008673ffffffffffffffffffffffffffffffffffffffff1673ffffffffffffffffffffffffffffffffffffffff168152602001908152602001600020604051610d459190611f3c565b90815260200160405180910390206002019080519060200190610d699291906114f7565b506006600460008573ffffffffffffffffffffffffffffffffffffffff1673ffffffffffffffffffffffffffffffffffffffff168152602001908152602001600020604051610db89190611f3c565b908152602001604051809103902084908060018154018082558091505060019003906000526020600020016000909190919091509080519060200190610dff9291906114f7565b5081600582604051610e119190611e25565b9081526020016040518091039020819055507fb69936364f93e1642cb505be502966b959556781c3a08a939e05614380834e998385604051610e54929190612129565b60405180910390a150505050565b6002818051602081018201805184825260208301602085012081835280955050505050506000915090508060000160009054906101000a900473ffffffffffffffffffffffffffffffffffffffff1690806001018054610ec190611db7565b80601f0160208091040260200160405190810160405280929190818152602001828054610eed90611db7565b8015610f3a5780601f10610f0f57610100808354040283529160200191610f3a565b820191906000526020600020905b815481529060010190602001808311610f1d57829003601f168201915b505050505090806002018054610f4f90611db7565b80601f0160208091040260200160405190810160405280929190818152602001828054610f7b90611db7565b8015610fc85780601f10610f9d57610100808354040283529160200191610fc8565b820191906000526020600020905b815481529060010190602001808311610fab57829003601f168201915b505050505090806003018054610fdd90611db7565b80601f016020809104026020016040519081016040528092919081815260200182805461100990611db7565b80156110565780601f1061102b57610100808354040283529160200191611056565b820191906000526020600020905b81548152906001019060200180831161103957829003601f168201915b5050505050905084565b60405180608001604052803373ffffffffffffffffffffffffffffffffffffffff1681526020018481526020016040518060400160405280600481526020017f6e756c6c000000000000000000000000000000000000000000000000000000008152508152602001838152506002846040516110dc9190611e25565b908152602001604051809103902060008201518160000160006101000a81548173ffffffffffffffffffffffffffffffffffffffff021916908373ffffffffffffffffffffffffffffffffffffffff160217905550602082015181600101908051906020019061114d9291906114f7565b50604082015181600201908051906020019061116a9291906114f7565b5060608201518160030190805190602001906111879291906114f7565b509050506000839080600181540180825580915050600190039060005260206000200160009091909190915090805190602001906111c69291906114f7565b5082600460008373ffffffffffffffffffffffffffffffffffffffff1673ffffffffffffffffffffffffffffffffffffffff168152602001908152602001600020908051906020019061121a9291906114f7565b507f6972234f8c23f8cbf4b5474d6b4b96b1d11dc30a84f5048f4953a85487b8f783818460405161124c929190612129565b60405180910390a1505050565b6004602052806000526040600020600091509050805461127890611db7565b80601f01602080910402602001604051908101604052809291908181526020018280546112a490611db7565b80156112f15780601f106112c6576101008083540402835291602001916112f1565b820191906000526020600020905b8154815290600101906020018083116112d457829003601f168201915b505050505081565b60606001805480602002602001604051908101604052809291908181526020016000905b828210156113c957838290600052602060002001805461133c90611db7565b80601f016020809104026020016040519081016040528092919081815260200182805461136890611db7565b80156113b55780601f1061138a576101008083540402835291602001916113b5565b820191906000526020600020905b81548152906001019060200180831161139857829003601f168201915b50505050508152602001906001019061131d565b50505050905090565b600682805160208101820180518482526020830160208501208183528095505050505050818154811061140457600080fd5b9060005260206000200160009150915050805461142090611db7565b80601f016020809104026020016040519081016040528092919081815260200182805461144c90611db7565b80156114995780601f1061146e57610100808354040283529160200191611499565b820191906000526020600020905b81548152906001019060200180831161147c57829003601f168201915b505050505081565b6005818051602081018201805184825260208301602085012081835280955050505050506000915090505481565b60006005826040516114e19190611e25565b9081526020016040518091039020549050919050565b82805461150390611db7565b90600052602060002090601f016020900481019282611525576000855561156c565b82601f1061153e57805160ff191683800117855561156c565b8280016001018555821561156c579182015b8281111561156b578251825591602001919060010190611550565b5b509050611579919061157d565b5090565b5b8082111561159657600081600090555060010161157e565b5090565b600073ffffffffffffffffffffffffffffffffffffffff82169050919050565b60006115c58261159a565b9050919050565b6115d5816115ba565b82525050565b6000819050919050565b6115ee816115db565b82525050565b600060408201905061160960008301856115cc565b61161660208301846115e5565b9392505050565b6000604051905090565b600080fd5b600080fd5b61163a816115ba565b811461164557600080fd5b50565b60008135905061165781611631565b92915050565b60006020828403121561167357611672611627565b5b600061168184828501611648565b91505092915050565b60008115159050919050565b61169f8161168a565b82525050565b60006020820190506116ba6000830184611696565b92915050565b600081519050919050565b600082825260208201905092915050565b6000819050602082019050919050565b600081519050919050565b600082825260208201905092915050565b60005b8381101561172657808201518184015260208101905061170b565b83811115611735576000848401525b50505050565b6000601f19601f8301169050919050565b6000611757826116ec565b61176181856116f7565b9350611771818560208601611708565b61177a8161173b565b840191505092915050565b6000611791838361174c565b905092915050565b6000602082019050919050565b60006117b1826116c0565b6117bb81856116cb565b9350836020820285016117cd856116dc565b8060005b8581101561180957848403895281516117ea8582611785565b94506117f583611799565b925060208a019950506001810190506117d1565b50829750879550505050505092915050565b6000602082019050818103600083015261183581846117a6565b905092915050565b600080fd5b600080fd5b7f4e487b7100000000000000000000000000000000000000000000000000000000600052604160045260246000fd5b61187f8261173b565b810181811067ffffffffffffffff8211171561189e5761189d611847565b5b80604052505050565b60006118b161161d565b90506118bd8282611876565b919050565b600067ffffffffffffffff8211156118dd576118dc611847565b5b6118e68261173b565b9050602081019050919050565b82818337600083830152505050565b6000611915611910846118c2565b6118a7565b90508281526020810184848401111561193157611930611842565b5b61193c8482856118f3565b509392505050565b600082601f8301126119595761195861183d565b5b8135611969848260208601611902565b91505092915050565b60006020828403121561198857611987611627565b5b600082013567ffffffffffffffff8111156119a6576119a561162c565b5b6119b284828501611944565b91505092915050565b600082825260208201905092915050565b60006119d7826116ec565b6119e181856119bb565b93506119f1818560208601611708565b6119fa8161173b565b840191505092915050565b600060c082019050611a1a60008301896115cc565b611a2760208301886115cc565b611a3460408301876115e5565b611a416060830186611696565b611a4e6080830185611696565b81810360a0830152611a6081846119cc565b9050979650505050505050565b611a76816115db565b8114611a8157600080fd5b50565b600081359050611a9381611a6d565b92915050565b600060208284031215611aaf57611aae611627565b5b6000611abd84828501611a84565b91505092915050565b60006020820190508181036000830152611ae081846119cc565b905092915050565b611af18161168a565b8114611afc57600080fd5b50565b600081359050611b0e81611ae8565b92915050565b60008060008060008060c08789031215611b3157611b30611627565b5b6000611b3f89828a01611648565b9650506020611b5089828a01611648565b9550506040611b6189828a01611a84565b9450506060611b7289828a01611aff565b9350506080611b8389828a01611aff565b92505060a087013567ffffffffffffffff811115611ba457611ba361162c565b5b611bb089828a01611944565b9150509295509295509295565b600080600060608486031215611bd657611bd5611627565b5b600084013567ffffffffffffffff811115611bf457611bf361162c565b5b611c0086828701611944565b9350506020611c1186828701611648565b9250506040611c2286828701611a84565b9150509250925092565b6000608082019050611c4160008301876115cc565b8181036020830152611c5381866119cc565b90508181036040830152611c6781856119cc565b90508181036060830152611c7b81846119cc565b905095945050505050565b600080600060608486031215611c9f57611c9e611627565b5b600084013567ffffffffffffffff811115611cbd57611cbc61162c565b5b611cc986828701611944565b935050602084013567ffffffffffffffff811115611cea57611ce961162c565b5b611cf686828701611944565b9250506040611d0786828701611648565b9150509250925092565b60008060408385031215611d2857611d27611627565b5b600083013567ffffffffffffffff811115611d4657611d4561162c565b5b611d5285828601611944565b9250506020611d6385828601611a84565b9150509250929050565b6000602082019050611d8260008301846115e5565b92915050565b7f4e487b7100000000000000000000000000000000000000000000000000000000600052602260045260246000fd5b60006002820490506001821680611dcf57607f821691505b60208210811415611de357611de2611d88565b5b50919050565b600081905092915050565b6000611dff826116ec565b611e098185611de9565b9350611e19818560208601611708565b80840191505092915050565b6000611e318284611df4565b915081905092915050565b7f52656c61796572206e6f7420666f756e64000000000000000000000000000000600082015250565b6000611e726011836119bb565b9150611e7d82611e3c565b602082019050919050565b60006020820190508181036000830152611ea181611e65565b9050919050565b60008190508160005260206000209050919050565b60008154611eca81611db7565b611ed48186611de9565b94506001821660008114611eef5760018114611f0057611f33565b60ff19831686528186019350611f33565b611f0985611ea8565b60005b83811015611f2b57815481890152600182019150602081019050611f0c565b838801955050505b50505092915050565b6000611f488284611ebd565b915081905092915050565b7f4f6e6c79207468652072656c617965722063616e20706c616365206269640000600082015250565b6000611f89601e836119bb565b9150611f9482611f53565b602082019050919050565b60006020820190508181036000830152611fb881611f7c565b9050919050565b7f416d6f756e742073686f756c642062652067726561746572207468616e20746860008201527f65207472616e73616374696f6e20616d6f756e742e0000000000000000000000602082015250565b600061201b6035836119bb565b915061202682611fbf565b604082019050919050565b6000602082019050818103600083015261204a8161200e565b9050919050565b7f426964206973206c6f636b656400000000000000000000000000000000000000600082015250565b6000612087600d836119bb565b915061209282612051565b602082019050919050565b600060208201905081810360008301526120b68161207a565b9050919050565b7f42696420697320616c726561647920626f756768740000000000000000000000600082015250565b60006120f36015836119bb565b91506120fe826120bd565b602082019050919050565b60006020820190508181036000830152612122816120e6565b9050919050565b600060408201905061213e60008301856115cc565b818103602083015261215081846119cc565b9050939250505056fea2646970667358221220873a5d04eb56de3d036f6b79ee75ed58d886dab80803b5e57c9de7de71ae7ddf64736f6c634300080a0033",
  "immutableReferences": {},
  "source": "// SPDX-License-Identifier: MIT\r\npragma solidity ^0.8.10;\r\n\r\ncontract LayerB {\r\n    struct RelayerB {\r\n        address relayer;\r\n        string relayerId;\r\n        string assignedBidId;\r\n        string name;\r\n    }\r\n    struct Bid {\r\n        address sender;\r\n        address receiver;\r\n        uint256 amount;\r\n        bool locked;\r\n        bool bought;\r\n        string Id;\r\n    }\r\n\r\n\r\n\r\n    string[] public Relayers;\r\n    string[] public Bids;\r\n    mapping(string => RelayerB) public RelayersB;\r\n    mapping(string => Bid) public BidsMap;\r\n    mapping(address => string) public RelayerAdToId;\r\n    mapping(string => uint256) public lockedStakesForBidId; // Stores locked stakes for each bidId\r\n    mapping(string => string[]) public bidRelayers; // Stores bids for each relayer\r\n\r\n\r\n\r\n\r\n\r\n\r\n    event Received(address sender, uint256 amount);\r\n    event bidPlaced(address relayer, string bidId);\r\n    event relayerAdded(address relayer, string relayerId);\r\n    event bidAddedToLayer(string bidId);\r\n\r\n\r\n\r\n\r\n    function getRelayers() public view returns (string[] memory) {\r\n        return Relayers;\r\n    }\r\n\r\n    function getBids() public view returns (string[] memory) {\r\n        return Bids;\r\n    }\r\n\r\n    function bidgetter(string memory _id) external view returns (uint256){\r\n        return lockedStakesForBidId[_id];\r\n    }\r\n\r\n\r\n\r\n\r\n\r\n    receive() external payable {\r\n        emit Received(msg.sender, msg.value);\r\n    }\r\n\r\n\r\n\r\n\r\n\r\n    // This fucntion is called by the router contract that adds relayer to a certain layer\r\n    function addRelayer(\r\n        string memory _id,\r\n        string memory _name,\r\n        address _relayer\r\n    ) external {\r\n        RelayersB[_id] = RelayerB({\r\n            relayer: msg.sender,\r\n            relayerId: _id,\r\n            assignedBidId: \"null\",\r\n            name: _name\r\n        });\r\n        Relayers.push(_id);\r\n        RelayerAdToId[_relayer] = _id;\r\n        emit relayerAdded(_relayer, _id);\r\n    }\r\n\r\n\r\n\r\n\r\n\r\n    // This function is called by the router contract that adds bids to a certain layer\r\n    function addBid(\r\n        address _sender,\r\n        address _receiver,\r\n        uint256 _amount,\r\n        bool _locked,\r\n        bool _bought,\r\n        string memory _id\r\n    ) external {\r\n        BidsMap[_id] = Bid({\r\n            sender: _sender,\r\n            receiver: _receiver,\r\n            amount: _amount,\r\n            locked: _locked,\r\n            bought: _bought,\r\n            Id: _id\r\n        });\r\n        Bids.push(_id);\r\n        emit bidAddedToLayer(_id);\r\n    }\r\n\r\n\r\n\r\n\r\n    function placeBid(\r\n        string memory bidId,\r\n        address relayer,\r\n        uint256 _amount\r\n    ) public {\r\n        string memory bidIdStr = string(abi.encodePacked(bidId));\r\n        require(bytes(RelayerAdToId[relayer]).length != 0, \"Relayer not found\");\r\n        // require(RelayersA[RelayerAdToId[relayer]].assignedBidId  , \"Relayer already has a bid\");\r\n        require(\r\n            RelayersB[RelayerAdToId[relayer]].relayer == msg.sender,\r\n            \"Only the relayer can place bid\"\r\n        );\r\n        require(\r\n            _amount > BidsMap[bidIdStr].amount,\r\n            \"Amount should be greater than the transaction amount.\"\r\n        );\r\n        require(BidsMap[bidIdStr].locked == false, \"Bid is locked\");\r\n        require(BidsMap[bidIdStr].bought == false, \"Bid is already bought\");\r\n\r\n        BidsMap[bidIdStr].bought = true;\r\n        RelayersB[RelayerAdToId[relayer]].assignedBidId = bidIdStr;\r\n        bidRelayers[RelayerAdToId[relayer]].push(bidId);\r\n        lockedStakesForBidId[bidIdStr] = _amount;\r\n        emit bidPlaced(relayer, bidId);\r\n    }\r\n\r\n\r\n    function isRelayerExists(address _relayer) public view returns (bool) {\r\n        return bytes(RelayerAdToId[_relayer]).length != 0;\r\n    }\r\n}\r\n",
  "sourcePath": "D:\\Interoperability\\contracts\\LayerB.sol",
  "compiler": {
    "name": "solc",
    "version": "0.8.10+commit.fc410830.Emscripten.clang"
  },
  "schemaVersion": "3.4.16",
  "updatedAt": "2024-08-14T01:17:31.032Z",
  "networkType": "ethereum",
  "devdoc": {
    "kind": "dev",
    "methods": {},
    "version": 1
  },
  "userdoc": {
    "kind": "user",
    "methods": {},
    "version": 1
  }
}