{
  "contractName": "LockingAsset",
  "abi": [
    {
      "inputs": [],
      "stateMutability": "nonpayable",
      "type": "constructor"
    },
    {
      "anonymous": false,
      "inputs": [
        {
          "indexed": false,
          "internalType": "address",
          "name": "sender",
          "type": "address"
        },
        {
          "indexed": false,
          "internalType": "uint256",
          "name": "amount",
          "type": "uint256"
        }
      ],
      "name": "Received",
      "type": "event"
    },
    {
      "anonymous": false,
      "inputs": [
        {
          "indexed": true,
          "internalType": "address",
          "name": "user",
          "type": "address"
        },
        {
          "indexed": false,
          "internalType": "address",
          "name": "receiver",
          "type": "address"
        },
        {
          "indexed": false,
          "internalType": "uint256",
          "name": "amount",
          "type": "uint256"
        },
        {
          "indexed": false,
          "internalType": "string",
          "name": "bidId",
          "type": "string"
        },
        {
          "indexed": false,
          "internalType": "bool",
          "name": "bought",
          "type": "bool"
        }
      ],
      "name": "TokensLocked",
      "type": "event"
    },
    {
      "anonymous": false,
      "inputs": [
        {
          "indexed": true,
          "internalType": "address",
          "name": "user",
          "type": "address"
        },
        {
          "indexed": false,
          "internalType": "uint256",
          "name": "amount",
          "type": "uint256"
        },
        {
          "indexed": false,
          "internalType": "string",
          "name": "bidId",
          "type": "string"
        }
      ],
      "name": "TokensUnlocked",
      "type": "event"
    },
    {
      "inputs": [
        {
          "internalType": "uint256",
          "name": "",
          "type": "uint256"
        }
      ],
      "name": "bidIds",
      "outputs": [
        {
          "internalType": "string",
          "name": "",
          "type": "string"
        }
      ],
      "stateMutability": "view",
      "type": "function",
      "constant": true
    },
    {
      "inputs": [
        {
          "internalType": "string",
          "name": "",
          "type": "string"
        }
      ],
      "name": "bids",
      "outputs": [
        {
          "internalType": "address",
          "name": "sender",
          "type": "address"
        },
        {
          "internalType": "address",
          "name": "receiver",
          "type": "address"
        },
        {
          "internalType": "uint256",
          "name": "amount",
          "type": "uint256"
        },
        {
          "internalType": "bool",
          "name": "locked",
          "type": "bool"
        },
        {
          "internalType": "bool",
          "name": "bought",
          "type": "bool"
        },
        {
          "internalType": "string",
          "name": "Id",
          "type": "string"
        }
      ],
      "stateMutability": "view",
      "type": "function",
      "constant": true
    },
    {
      "inputs": [],
      "name": "owner",
      "outputs": [
        {
          "internalType": "address",
          "name": "",
          "type": "address"
        }
      ],
      "stateMutability": "view",
      "type": "function",
      "constant": true
    },
    {
      "stateMutability": "payable",
      "type": "receive",
      "payable": true
    },
    {
      "inputs": [
        {
          "internalType": "address payable",
          "name": "_receiver",
          "type": "address"
        }
      ],
      "name": "lockTokens",
      "outputs": [],
      "stateMutability": "payable",
      "type": "function",
      "payable": true
    },
    {
      "inputs": [],
      "name": "showContractBalance",
      "outputs": [
        {
          "internalType": "uint256",
          "name": "",
          "type": "uint256"
        }
      ],
      "stateMutability": "view",
      "type": "function",
      "constant": true
    }
  ],
  "bytecode": "0x608060405234801561001057600080fd5b50336000806101000a81548173ffffffffffffffffffffffffffffffffffffffff021916908373ffffffffffffffffffffffffffffffffffffffff160217905550600060018190555061117c806100686000396000f3fe60806040526004361061004e5760003560e01c80631270863d146100935780638da5cb5b146100af578063901c947f146100da5780639e27af8714610105578063ec3e4e6f146101475761008e565b3661008e577f88a5966d370b9919b20f3e2c13ff65706f196a4e32cc2c12bf57088f885258743334604051610084929190610932565b60405180910390a1005b600080fd5b6100ad60048036038101906100a891906109ad565b610184565b005b3480156100bb57600080fd5b506100c461050b565b6040516100d191906109da565b60405180910390f35b3480156100e657600080fd5b506100ef61052f565b6040516100fc91906109f5565b60405180910390f35b34801561011157600080fd5b5061012c60048036038101906101279190610b56565b610537565b60405161013e96959493929190610c42565b60405180910390f35b34801561015357600080fd5b5061016e60048036038101906101699190610cd6565b61066b565b60405161017b9190610d03565b60405180910390f35b61018c610717565b600260006101000a81548173ffffffffffffffffffffffffffffffffffffffff021916908373ffffffffffffffffffffffffffffffffffffffff1602179055506000341161020f576040517f08c379a000000000000000000000000000000000000000000000000000000000815260040161020690610d71565b60405180910390fd5b600260009054906101000a900473ffffffffffffffffffffffffffffffffffffffff1673ffffffffffffffffffffffffffffffffffffffff166108fc349081150290604051600060405180830381858888f19350505050158015610277573d6000803e3d6000fd5b506001600081548092919061028b90610dc0565b919050555060004282336001546040516020016102ab9493929190610e9b565b6040516020818303038152906040528051906020012060001c905060006102d18261071f565b905060048190806001815401808255809150506001900390600052602060002001600090919091909150908051906020019061030e929190610835565b506040518060c001604052803373ffffffffffffffffffffffffffffffffffffffff1681526020018473ffffffffffffffffffffffffffffffffffffffff1681526020013481526020016001151581526020016000151581526020018281525060038260405161037e9190610f25565b908152602001604051809103902060008201518160000160006101000a81548173ffffffffffffffffffffffffffffffffffffffff021916908373ffffffffffffffffffffffffffffffffffffffff16021790555060208201518160010160006101000a81548173ffffffffffffffffffffffffffffffffffffffff021916908373ffffffffffffffffffffffffffffffffffffffff1602179055506040820151816002015560608201518160030160006101000a81548160ff02191690831515021790555060808201518160030160016101000a81548160ff02191690831515021790555060a0820151816004019080519060200190610480929190610835565b509050503373ffffffffffffffffffffffffffffffffffffffff167f41ad436014982af0dbbb49700b80b0746e5404727f5378441231c0946ef30ba78434846003866040516104cf9190610f25565b908152602001604051809103902060030160019054906101000a900460ff166040516104fe9493929190610f9b565b60405180910390a2505050565b60008054906101000a900473ffffffffffffffffffffffffffffffffffffffff1681565b600047905090565b6003818051602081018201805184825260208301602085012081835280955050505050506000915090508060000160009054906101000a900473ffffffffffffffffffffffffffffffffffffffff16908060010160009054906101000a900473ffffffffffffffffffffffffffffffffffffffff16908060020154908060030160009054906101000a900460ff16908060030160019054906101000a900460ff16908060040180546105e890611016565b80601f016020809104026020016040519081016040528092919081815260200182805461061490611016565b80156106615780601f1061063657610100808354040283529160200191610661565b820191906000526020600020905b81548152906001019060200180831161064457829003601f168201915b5050505050905086565b6004818154811061067b57600080fd5b90600052602060002001600091509050805461069690611016565b80601f01602080910402602001604051908101604052809291908181526020018280546106c290611016565b801561070f5780601f106106e45761010080835404028352916020019161070f565b820191906000526020600020905b8154815290600101906020018083116106f257829003601f168201915b505050505081565b600030905090565b606060006040518060600160405280603e8152602001611109603e913990506000601067ffffffffffffffff81111561075b5761075a610a2b565b5b6040519080825280601f01601f19166020018201604052801561078d5781602001600182028036833780820191505090505b50905060005b815181101561082a57828351866107aa9190611077565b815181106107bb576107ba6110a8565b5b602001015160f81c60f81b8282815181106107d9576107d86110a8565b5b60200101907effffffffffffffffffffffffffffffffffffffffffffffffffffffffffffff1916908160001a90535082518561081591906110d7565b9450808061082290610dc0565b915050610793565b508092505050919050565b82805461084190611016565b90600052602060002090601f01602090048101928261086357600085556108aa565b82601f1061087c57805160ff19168380011785556108aa565b828001600101855582156108aa579182015b828111156108a957825182559160200191906001019061088e565b5b5090506108b791906108bb565b5090565b5b808211156108d45760008160009055506001016108bc565b5090565b600073ffffffffffffffffffffffffffffffffffffffff82169050919050565b6000610903826108d8565b9050919050565b610913816108f8565b82525050565b6000819050919050565b61092c81610919565b82525050565b6000604082019050610947600083018561090a565b6109546020830184610923565b9392505050565b6000604051905090565b600080fd5b600080fd5b600061097a826108d8565b9050919050565b61098a8161096f565b811461099557600080fd5b50565b6000813590506109a781610981565b92915050565b6000602082840312156109c3576109c2610965565b5b60006109d184828501610998565b91505092915050565b60006020820190506109ef600083018461090a565b92915050565b6000602082019050610a0a6000830184610923565b92915050565b600080fd5b600080fd5b6000601f19601f8301169050919050565b7f4e487b7100000000000000000000000000000000000000000000000000000000600052604160045260246000fd5b610a6382610a1a565b810181811067ffffffffffffffff82111715610a8257610a81610a2b565b5b80604052505050565b6000610a9561095b565b9050610aa18282610a5a565b919050565b600067ffffffffffffffff821115610ac157610ac0610a2b565b5b610aca82610a1a565b9050602081019050919050565b82818337600083830152505050565b6000610af9610af484610aa6565b610a8b565b905082815260208101848484011115610b1557610b14610a15565b5b610b20848285610ad7565b509392505050565b600082601f830112610b3d57610b3c610a10565b5b8135610b4d848260208601610ae6565b91505092915050565b600060208284031215610b6c57610b6b610965565b5b600082013567ffffffffffffffff811115610b8a57610b8961096a565b5b610b9684828501610b28565b91505092915050565b60008115159050919050565b610bb481610b9f565b82525050565b600081519050919050565b600082825260208201905092915050565b60005b83811015610bf4578082015181840152602081019050610bd9565b83811115610c03576000848401525b50505050565b6000610c1482610bba565b610c1e8185610bc5565b9350610c2e818560208601610bd6565b610c3781610a1a565b840191505092915050565b600060c082019050610c57600083018961090a565b610c64602083018861090a565b610c716040830187610923565b610c7e6060830186610bab565b610c8b6080830185610bab565b81810360a0830152610c9d8184610c09565b9050979650505050505050565b610cb381610919565b8114610cbe57600080fd5b50565b600081359050610cd081610caa565b92915050565b600060208284031215610cec57610ceb610965565b5b6000610cfa84828501610cc1565b91505092915050565b60006020820190508181036000830152610d1d8184610c09565b905092915050565b7f416d6f756e74206d7573742062652067726561746572207468616e207a65726f600082015250565b6000610d5b602083610bc5565b9150610d6682610d25565b602082019050919050565b60006020820190508181036000830152610d8a81610d4e565b9050919050565b7f4e487b7100000000000000000000000000000000000000000000000000000000600052601160045260246000fd5b6000610dcb82610919565b91507fffffffffffffffffffffffffffffffffffffffffffffffffffffffffffffffff821415610dfe57610dfd610d91565b5b600182019050919050565b6000819050919050565b610e24610e1f82610919565b610e09565b82525050565b60008160601b9050919050565b6000610e4282610e2a565b9050919050565b6000610e5482610e37565b9050919050565b610e6c610e678261096f565b610e49565b82525050565b6000610e7d82610e37565b9050919050565b610e95610e90826108f8565b610e72565b82525050565b6000610ea78287610e13565b602082019150610eb78286610e5b565b601482019150610ec78285610e84565b601482019150610ed78284610e13565b60208201915081905095945050505050565b600081905092915050565b6000610eff82610bba565b610f098185610ee9565b9350610f19818560208601610bd6565b80840191505092915050565b6000610f318284610ef4565b915081905092915050565b6000819050919050565b6000610f61610f5c610f57846108d8565b610f3c565b6108d8565b9050919050565b6000610f7382610f46565b9050919050565b6000610f8582610f68565b9050919050565b610f9581610f7a565b82525050565b6000608082019050610fb06000830187610f8c565b610fbd6020830186610923565b8181036040830152610fcf8185610c09565b9050610fde6060830184610bab565b95945050505050565b7f4e487b7100000000000000000000000000000000000000000000000000000000600052602260045260246000fd5b6000600282049050600182168061102e57607f821691505b6020821081141561104257611041610fe7565b5b50919050565b7f4e487b7100000000000000000000000000000000000000000000000000000000600052601260045260246000fd5b600061108282610919565b915061108d83610919565b92508261109d5761109c611048565b5b828206905092915050565b7f4e487b7100000000000000000000000000000000000000000000000000000000600052603260045260246000fd5b60006110e282610919565b91506110ed83610919565b9250826110fd576110fc611048565b5b82820490509291505056fe4142434445464748494a4b4c4d4e4f505152535455565758595a6162636465666768696a6b6c6d6e6f707172737475767778797a30313233343536373839a2646970667358221220827dd9b392da3eb0f99677e539a5a192d696a1ad8ae8eeb5ebafa891613118e264736f6c634300080a0033",
  "immutableReferences": {},
  "source": "// SPDX-License-Identifier: MIT\r\npragma solidity ^0.8.10;\r\n\r\ncontract LockingAsset {\r\n    address public owner;\r\n    uint256 private nonce;\r\n    address payable contractAddress;\r\n    \r\n    struct Bid {\r\n        address sender;\r\n        address receiver;\r\n        uint256 amount;\r\n        bool locked;\r\n        bool bought;\r\n        string Id;\r\n    }\r\n    \r\n    mapping(string => Bid) public bids;\r\n\r\n    string[] public bidIds;\r\n\r\n\r\n    event TokensLocked(address indexed user, address receiver, uint256 amount, string bidId,bool bought);\r\n    event TokensUnlocked(address indexed user, uint256 amount, string bidId);\r\n    event Received(address sender, uint amount);\r\n\r\n\r\n    constructor() {\r\n        owner = msg.sender;\r\n        nonce = 0;\r\n    }\r\n\r\n      receive() external payable {\r\n        emit Received(msg.sender, msg.value);\r\n    }\r\n\r\n    function lockTokens(address payable _receiver) external payable  {\r\n        contractAddress = getAddress();\r\n\r\n        require(msg.value>0,\"Amount must be greater than zero\");\r\n        contractAddress.transfer(msg.value);\r\n        nonce++;\r\n        uint256 randomValue = uint256(keccak256(abi.encodePacked(block.timestamp,_receiver, msg.sender, nonce)));\r\n        string memory bidId = generateBidId(randomValue);\r\n\r\n        bidIds.push(bidId);\r\n\r\n        bids[bidId] = Bid({\r\n            sender: msg.sender,\r\n            receiver : _receiver,\r\n            amount: msg.value,\r\n            locked: true,\r\n            bought:false,\r\n            Id : bidId\r\n\r\n        });\r\n\r\n        emit TokensLocked(msg.sender, _receiver, msg.value, bidId, bids[bidId].bought);\r\n    }\r\n\r\n    function getAddress() internal view returns (address payable ) {\r\n        return payable (address(this));\r\n    }\r\n\r\n\r\n\r\n    function showContractBalance() public view returns(uint256){\r\n        return address(this).balance;\r\n    }\r\n\r\n    \r\n\r\n    function generateBidId(uint256 randomValue) private pure returns (string memory) {\r\n        bytes memory characters = \"ABCDEFGHIJKLMNOPQRSTUVWXYZabcdefghijklmnopqrstuvwxyz0123456789\";\r\n        bytes memory bidId = new bytes(16); \r\n\r\n        for (uint256 i = 0; i < bidId.length; i++) {\r\n            bidId[i] = characters[randomValue % characters.length];\r\n            randomValue /= characters.length;\r\n        }\r\n\r\n        return string(bidId);\r\n    }\r\n}\r\n\r\n\r\n\r\n\r\n\r\n\r\n\r\n\r\n",
  "sourcePath": "D:\\Interoperability\\contracts\\LockingAsset.sol",
  "compiler": {
    "name": "solc",
    "version": "0.8.10+commit.fc410830.Emscripten.clang"
  },
  "schemaVersion": "3.4.16",
  "updatedAt": "2024-08-14T01:17:29.705Z",
  "networkType": "ethereum",
  "devdoc": {
    "kind": "dev",
    "methods": {},
    "version": 1
  },
  "userdoc": {
    "kind": "user",
    "methods": {},
    "version": 1
  }
}