{
  "contractName": "Router",
  "abi": [
    {
      "inputs": [
        {
          "internalType": "address payable",
          "name": "layerAaddress",
          "type": "address"
        },
        {
          "internalType": "address payable",
          "name": "layerBaddress",
          "type": "address"
        },
        {
          "internalType": "address payable",
          "name": "layerCaddress",
          "type": "address"
        }
      ],
      "stateMutability": "nonpayable",
      "type": "constructor"
    },
    {
      "anonymous": false,
      "inputs": [
        {
          "indexed": false,
          "internalType": "string",
          "name": "BidId",
          "type": "string"
        }
      ],
      "name": "BidRouted",
      "type": "event"
    },
    {
      "anonymous": false,
      "inputs": [
        {
          "indexed": false,
          "internalType": "string",
          "name": "RelayerId",
          "type": "string"
        }
      ],
      "name": "RelayerRouted",
      "type": "event"
    },
    {
      "inputs": [
        {
          "internalType": "string",
          "name": "",
          "type": "string"
        }
      ],
      "name": "Relayers",
      "outputs": [
        {
          "internalType": "address",
          "name": "relayer",
          "type": "address"
        },
        {
          "internalType": "uint256",
          "name": "minAmount",
          "type": "uint256"
        },
        {
          "internalType": "uint256",
          "name": "maxAmount",
          "type": "uint256"
        },
        {
          "internalType": "string",
          "name": "relayerId",
          "type": "string"
        },
        {
          "internalType": "string",
          "name": "assignedBidId",
          "type": "string"
        },
        {
          "internalType": "string",
          "name": "name",
          "type": "string"
        }
      ],
      "stateMutability": "view",
      "type": "function",
      "constant": true
    },
    {
      "inputs": [
        {
          "internalType": "uint256",
          "name": "",
          "type": "uint256"
        }
      ],
      "name": "ids",
      "outputs": [
        {
          "internalType": "string",
          "name": "",
          "type": "string"
        }
      ],
      "stateMutability": "view",
      "type": "function",
      "constant": true
    },
    {
      "inputs": [
        {
          "internalType": "string",
          "name": "_name",
          "type": "string"
        },
        {
          "internalType": "uint256",
          "name": "_minAmount",
          "type": "uint256"
        },
        {
          "internalType": "uint256",
          "name": "_maxAmount",
          "type": "uint256"
        }
      ],
      "name": "setRelayer",
      "outputs": [],
      "stateMutability": "nonpayable",
      "type": "function"
    },
    {
      "inputs": [
        {
          "internalType": "string",
          "name": "_id",
          "type": "string"
        },
        {
          "internalType": "address",
          "name": "_sender",
          "type": "address"
        },
        {
          "internalType": "address",
          "name": "_receiver",
          "type": "address"
        },
        {
          "internalType": "uint256",
          "name": "_amount",
          "type": "uint256"
        },
        {
          "internalType": "bool",
          "name": "_locked",
          "type": "bool"
        },
        {
          "internalType": "bool",
          "name": "_bought",
          "type": "bool"
        }
      ],
      "name": "addBid",
      "outputs": [],
      "stateMutability": "nonpayable",
      "type": "function"
    }
  ],
  "bytecode": "0x60806040523480156200001157600080fd5b5060405162001b5838038062001b58833981810160405281019062000037919062000175565b600160008190555082600160006101000a81548173ffffffffffffffffffffffffffffffffffffffff021916908373ffffffffffffffffffffffffffffffffffffffff16021790555081600260006101000a81548173ffffffffffffffffffffffffffffffffffffffff021916908373ffffffffffffffffffffffffffffffffffffffff16021790555080600360006101000a81548173ffffffffffffffffffffffffffffffffffffffff021916908373ffffffffffffffffffffffffffffffffffffffff160217905550505050620001d1565b600080fd5b600073ffffffffffffffffffffffffffffffffffffffff82169050919050565b60006200013d8262000110565b9050919050565b6200014f8162000130565b81146200015b57600080fd5b50565b6000815190506200016f8162000144565b92915050565b6000806000606084860312156200019157620001906200010b565b5b6000620001a1868287016200015e565b9350506020620001b4868287016200015e565b9250506040620001c7868287016200015e565b9150509250925092565b61197780620001e16000396000f3fe608060405234801561001057600080fd5b506004361061004c5760003560e01c806310069264146100515780632886148d1461006d578063f8366b5f146100a2578063fac333ac146100be575b600080fd5b61006b60048036038101906100669190611164565b6100ee565b005b610087600480360381019061008291906111d3565b6105aa565b604051610099969594939291906112f4565b60405180910390f35b6100bc60048036038101906100b791906113ce565b6107b4565b005b6100d860048036038101906100d39190611477565b610a75565b6040516100e591906114a4565b60405180910390f35b600080815480929190610100906114f5565b91905055506000423360005460405160200161011e939291906115a7565b6040516020818303038152906040528051906020012060001c9050600061014482610b21565b9050600160009054906101000a900473ffffffffffffffffffffffffffffffffffffffff1673ffffffffffffffffffffffffffffffffffffffff1663136c67ff336040518263ffffffff1660e01b81526004016101a191906115e4565b602060405180830381865afa1580156101be573d6000803e3d6000fd5b505050506040513d601f19601f820116820180604052508101906101e29190611614565b806102855750600260009054906101000a900473ffffffffffffffffffffffffffffffffffffffff1673ffffffffffffffffffffffffffffffffffffffff1663136c67ff336040518263ffffffff1660e01b815260040161024391906115e4565b602060405180830381865afa158015610260573d6000803e3d6000fd5b505050506040513d601f19601f820116820180604052508101906102849190611614565b5b806103285750600360009054906101000a900473ffffffffffffffffffffffffffffffffffffffff1673ffffffffffffffffffffffffffffffffffffffff1663136c67ff336040518263ffffffff1660e01b81526004016102e691906115e4565b602060405180830381865afa158015610303573d6000803e3d6000fd5b505050506040513d601f19601f820116820180604052508101906103279190611614565b5b15610368576040517f08c379a000000000000000000000000000000000000000000000000000000000815260040161035f906116b3565b60405180910390fd5b6040518060c001604052803373ffffffffffffffffffffffffffffffffffffffff1681526020018581526020018481526020018281526020016040518060400160405280600481526020017f6e6f6e65000000000000000000000000000000000000000000000000000000008152508152602001868152506004826040516103f0919061170f565b908152602001604051809103902060008201518160000160006101000a81548173ffffffffffffffffffffffffffffffffffffffff021916908373ffffffffffffffffffffffffffffffffffffffff16021790555060208201518160010155604082015181600201556060820151816003019080519060200190610475929190610f31565b506080820151816004019080519060200190610492929190610f31565b5060a08201518160050190805190602001906104af929190610f31565b50905050610567816004836040516104c7919061170f565b908152602001604051809103902060050180546104e390611755565b80601f016020809104026020016040519081016040528092919081815260200182805461050f90611755565b801561055c5780601f106105315761010080835404028352916020019161055c565b820191906000526020600020905b81548152906001019060200180831161053f57829003601f168201915b505050505033610c37565b6005819080600181540180825580915050600190039060005260206000200160009091909190915090805190602001906105a2929190610f31565b505050505050565b6004818051602081018201805184825260208301602085012081835280955050505050506000915090508060000160009054906101000a900473ffffffffffffffffffffffffffffffffffffffff169080600101549080600201549080600301805461061590611755565b80601f016020809104026020016040519081016040528092919081815260200182805461064190611755565b801561068e5780601f106106635761010080835404028352916020019161068e565b820191906000526020600020905b81548152906001019060200180831161067157829003601f168201915b5050505050908060040180546106a390611755565b80601f01602080910402602001604051908101604052809291908181526020018280546106cf90611755565b801561071c5780601f106106f15761010080835404028352916020019161071c565b820191906000526020600020905b8154815290600101906020018083116106ff57829003601f168201915b50505050509080600501805461073190611755565b80601f016020809104026020016040519081016040528092919081815260200182805461075d90611755565b80156107aa5780601f1061077f576101008083540402835291602001916107aa565b820191906000526020600020905b81548152906001019060200180831161078d57829003601f168201915b5050505050905086565b600183101580156107c55750600583105b1561089d57600160009054906101000a900473ffffffffffffffffffffffffffffffffffffffff1673ffffffffffffffffffffffffffffffffffffffff16636613e82486868686868c6040518763ffffffff1660e01b815260040161082f96959493929190611796565b600060405180830381600087803b15801561084957600080fd5b505af115801561085d573d6000803e3d6000fd5b505050507f29822c774614b70daba5ebb1aba7232bef56b1e0a020a68d04c111c70791226c8660405161089091906114a4565b60405180910390a1610a6d565b600583101580156108ae5750600a83105b1561098657600260009054906101000a900473ffffffffffffffffffffffffffffffffffffffff1673ffffffffffffffffffffffffffffffffffffffff16636613e82486868686868c6040518763ffffffff1660e01b815260040161091896959493929190611796565b600060405180830381600087803b15801561093257600080fd5b505af1158015610946573d6000803e3d6000fd5b505050507f29822c774614b70daba5ebb1aba7232bef56b1e0a020a68d04c111c70791226c8660405161097991906114a4565b60405180910390a1610a6c565b600a83101580156109975750600f83105b15610a6b57600360009054906101000a900473ffffffffffffffffffffffffffffffffffffffff1673ffffffffffffffffffffffffffffffffffffffff16636613e82486868686868c6040518763ffffffff1660e01b8152600401610a0196959493929190611796565b600060405180830381600087803b158015610a1b57600080fd5b505af1158015610a2f573d6000803e3d6000fd5b505050507f29822c774614b70daba5ebb1aba7232bef56b1e0a020a68d04c111c70791226c86604051610a6291906114a4565b60405180910390a15b5b5b505050505050565b60058181548110610a8557600080fd5b906000526020600020016000915090508054610aa090611755565b80601f0160208091040260200160405190810160405280929190818152602001828054610acc90611755565b8015610b195780601f10610aee57610100808354040283529160200191610b19565b820191906000526020600020905b815481529060010190602001808311610afc57829003601f168201915b505050505081565b606060006040518060600160405280603e8152602001611904603e913990506000601067ffffffffffffffff811115610b5d57610b5c611003565b5b6040519080825280601f01601f191660200182016040528015610b8f5781602001600182028036833780820191505090505b50905060005b8151811015610c2c5782835186610bac919061182d565b81518110610bbd57610bbc61185e565b5b602001015160f81c60f81b828281518110610bdb57610bda61185e565b5b60200101907effffffffffffffffffffffffffffffffffffffffffffffffffffffffffffff1916908160001a905350825185610c17919061188d565b94508080610c24906114f5565b915050610b95565b508092505050919050565b6000600484604051610c49919061170f565b90815260200160405180910390206001015490506000600485604051610c6f919061170f565b908152602001604051809103902060020154905060018210158015610c945750600581105b15610d6657600160009054906101000a900473ffffffffffffffffffffffffffffffffffffffff1673ffffffffffffffffffffffffffffffffffffffff1663a5133e0e8686866040518463ffffffff1660e01b8152600401610cf8939291906118be565b600060405180830381600087803b158015610d1257600080fd5b505af1158015610d26573d6000803e3d6000fd5b505050507f59de5d984b46cbfdf6b090bf564b2bfea5f399bbfcec8d7d020e298c9f2421c685604051610d5991906114a4565b60405180910390a1610f2a565b60058210158015610d775750600a81105b15610e4957600260009054906101000a900473ffffffffffffffffffffffffffffffffffffffff1673ffffffffffffffffffffffffffffffffffffffff1663a5133e0e8686866040518463ffffffff1660e01b8152600401610ddb939291906118be565b600060405180830381600087803b158015610df557600080fd5b505af1158015610e09573d6000803e3d6000fd5b505050507f59de5d984b46cbfdf6b090bf564b2bfea5f399bbfcec8d7d020e298c9f2421c685604051610e3c91906114a4565b60405180910390a1610f29565b600a8210158015610e5a5750600f81105b15610f2857600360009054906101000a900473ffffffffffffffffffffffffffffffffffffffff1673ffffffffffffffffffffffffffffffffffffffff1663a5133e0e8686866040518463ffffffff1660e01b8152600401610ebe939291906118be565b600060405180830381600087803b158015610ed857600080fd5b505af1158015610eec573d6000803e3d6000fd5b505050507f59de5d984b46cbfdf6b090bf564b2bfea5f399bbfcec8d7d020e298c9f2421c685604051610f1f91906114a4565b60405180910390a15b5b5b5050505050565b828054610f3d90611755565b90600052602060002090601f016020900481019282610f5f5760008555610fa6565b82601f10610f7857805160ff1916838001178555610fa6565b82800160010185558215610fa6579182015b82811115610fa5578251825591602001919060010190610f8a565b5b509050610fb39190610fb7565b5090565b5b80821115610fd0576000816000905550600101610fb8565b5090565b6000604051905090565b600080fd5b600080fd5b600080fd5b600080fd5b6000601f19601f8301169050919050565b7f4e487b7100000000000000000000000000000000000000000000000000000000600052604160045260246000fd5b61103b82610ff2565b810181811067ffffffffffffffff8211171561105a57611059611003565b5b80604052505050565b600061106d610fd4565b90506110798282611032565b919050565b600067ffffffffffffffff82111561109957611098611003565b5b6110a282610ff2565b9050602081019050919050565b82818337600083830152505050565b60006110d16110cc8461107e565b611063565b9050828152602081018484840111156110ed576110ec610fed565b5b6110f88482856110af565b509392505050565b600082601f83011261111557611114610fe8565b5b81356111258482602086016110be565b91505092915050565b6000819050919050565b6111418161112e565b811461114c57600080fd5b50565b60008135905061115e81611138565b92915050565b60008060006060848603121561117d5761117c610fde565b5b600084013567ffffffffffffffff81111561119b5761119a610fe3565b5b6111a786828701611100565b93505060206111b88682870161114f565b92505060406111c98682870161114f565b9150509250925092565b6000602082840312156111e9576111e8610fde565b5b600082013567ffffffffffffffff81111561120757611206610fe3565b5b61121384828501611100565b91505092915050565b600073ffffffffffffffffffffffffffffffffffffffff82169050919050565b60006112478261121c565b9050919050565b6112578161123c565b82525050565b6112668161112e565b82525050565b600081519050919050565b600082825260208201905092915050565b60005b838110156112a657808201518184015260208101905061128b565b838111156112b5576000848401525b50505050565b60006112c68261126c565b6112d08185611277565b93506112e0818560208601611288565b6112e981610ff2565b840191505092915050565b600060c082019050611309600083018961124e565b611316602083018861125d565b611323604083018761125d565b818103606083015261133581866112bb565b9050818103608083015261134981856112bb565b905081810360a083015261135d81846112bb565b9050979650505050505050565b6113738161123c565b811461137e57600080fd5b50565b6000813590506113908161136a565b92915050565b60008115159050919050565b6113ab81611396565b81146113b657600080fd5b50565b6000813590506113c8816113a2565b92915050565b60008060008060008060c087890312156113eb576113ea610fde565b5b600087013567ffffffffffffffff81111561140957611408610fe3565b5b61141589828a01611100565b965050602061142689828a01611381565b955050604061143789828a01611381565b945050606061144889828a0161114f565b935050608061145989828a016113b9565b92505060a061146a89828a016113b9565b9150509295509295509295565b60006020828403121561148d5761148c610fde565b5b600061149b8482850161114f565b91505092915050565b600060208201905081810360008301526114be81846112bb565b905092915050565b7f4e487b7100000000000000000000000000000000000000000000000000000000600052601160045260246000fd5b60006115008261112e565b91507fffffffffffffffffffffffffffffffffffffffffffffffffffffffffffffffff821415611533576115326114c6565b5b600182019050919050565b6000819050919050565b6115596115548261112e565b61153e565b82525050565b60008160601b9050919050565b60006115778261155f565b9050919050565b60006115898261156c565b9050919050565b6115a161159c8261123c565b61157e565b82525050565b60006115b38286611548565b6020820191506115c38285611590565b6014820191506115d38284611548565b602082019150819050949350505050565b60006020820190506115f9600083018461124e565b92915050565b60008151905061160e816113a2565b92915050565b60006020828403121561162a57611629610fde565b5b6000611638848285016115ff565b91505092915050565b7f52656c6179657220616c72656164792065786973747320696e206f6e65206f6660008201527f20746865206c6179657273000000000000000000000000000000000000000000602082015250565b600061169d602b83611277565b91506116a882611641565b604082019050919050565b600060208201905081810360008301526116cc81611690565b9050919050565b600081905092915050565b60006116e98261126c565b6116f381856116d3565b9350611703818560208601611288565b80840191505092915050565b600061171b82846116de565b915081905092915050565b7f4e487b7100000000000000000000000000000000000000000000000000000000600052602260045260246000fd5b6000600282049050600182168061176d57607f821691505b6020821081141561178157611780611726565b5b50919050565b61179081611396565b82525050565b600060c0820190506117ab600083018961124e565b6117b8602083018861124e565b6117c5604083018761125d565b6117d26060830186611787565b6117df6080830185611787565b81810360a08301526117f181846112bb565b9050979650505050505050565b7f4e487b7100000000000000000000000000000000000000000000000000000000600052601260045260246000fd5b60006118388261112e565b91506118438361112e565b925082611853576118526117fe565b5b828206905092915050565b7f4e487b7100000000000000000000000000000000000000000000000000000000600052603260045260246000fd5b60006118988261112e565b91506118a38361112e565b9250826118b3576118b26117fe565b5b828204905092915050565b600060608201905081810360008301526118d881866112bb565b905081810360208301526118ec81856112bb565b90506118fb604083018461124e565b94935050505056fe4142434445464748494a4b4c4d4e4f505152535455565758595a6162636465666768696a6b6c6d6e6f707172737475767778797a30313233343536373839a2646970667358221220ef49be600a8e40eb086e3fa0ae0515827b4e8becd63b686fab92871e71fbd34164736f6c634300080a0033",
  "immutableReferences": {},
  "source": "// SPDX-License-Identifier: MIT\r\npragma solidity ^0.8.10;\r\n\r\n\r\nimport \"./LayerA.sol\";\r\nimport \"./LayerB.sol\";\r\nimport \"./LayerC.sol\";\r\n\r\n\r\n\r\n\r\n\r\n\r\n\r\ncontract Router{\r\n\r\n    uint256 private nonce;\r\n    struct Relayer{\r\n        address relayer;\r\n        uint256 minAmount;\r\n        uint256 maxAmount;\r\n        string relayerId;\r\n        string assignedBidId;\r\n        string name;\r\n    }\r\n\r\n    LayerA layerA;\r\n    LayerB layerB;\r\n    LayerC layerC;\r\n\r\n\r\n// ,address layerBaddress,address layerCaddress\r\n\r\n\r\n\r\n    constructor(address payable layerAaddress,address payable layerBaddress,address payable layerCaddress){\r\n        nonce = 1;\r\n        layerA = LayerA(layerAaddress);\r\n        layerB = LayerB(layerBaddress);\r\n        layerC = LayerC(layerCaddress);\r\n\r\n    }\r\n\r\n    mapping (string => Relayer) public Relayers;\r\n    string[] public ids;\r\n\r\n\r\n    event BidRouted(string BidId);\r\n    event RelayerRouted (string RelayerId);\r\n    \r\n\r\n    function setRelayer(string memory _name , uint256 _minAmount , uint256 _maxAmount) public {\r\n        \r\n        nonce++;\r\n        uint256 randomValue = uint256(keccak256(abi.encodePacked(block.timestamp, msg.sender, nonce)));\r\n        string memory RelayerId = generateRelayerId(randomValue);\r\n\r\n        \r\n        if (layerA.isRelayerExists(msg.sender) || layerB.isRelayerExists(msg.sender) || layerC.isRelayerExists(msg.sender)) {\r\n            revert(\"Relayer already exists in one of the layers\");\r\n        }\r\n\r\n        Relayers[RelayerId] = \r\n        Relayer({relayer : msg.sender, \r\n        minAmount : _minAmount, \r\n        maxAmount : _maxAmount, \r\n        assignedBidId : \"none\", \r\n        name : _name,relayerId:RelayerId}); \r\n\r\n        setLayer(RelayerId,Relayers[RelayerId].name,msg.sender);\r\n        ids.push(RelayerId);\r\n    }\r\n\r\n\r\n\r\n     function generateRelayerId(uint256 randomValue) private pure returns (string memory) {\r\n        bytes memory characters = \"ABCDEFGHIJKLMNOPQRSTUVWXYZabcdefghijklmnopqrstuvwxyz0123456789\";\r\n        bytes memory bidId = new bytes(16); \r\n\r\n        for (uint256 i = 0; i < bidId.length; i++) {\r\n            bidId[i] = characters[randomValue % characters.length];\r\n            randomValue /= characters.length;\r\n        }\r\n\r\n        return string(bidId);\r\n    }\r\n\r\n\r\n// layer A ---> 1-5 eth\r\n// layer B ---> 5-10 eth\r\n// layer C ---> 10-15 eth\r\n\r\n\r\n\r\n\r\n    function setLayer(string memory _relayerId,string memory _name,address _relayer) internal{\r\n            uint256 minimum_Amount = Relayers[_relayerId].minAmount;\r\n            uint256 maximum_Amount = Relayers[_relayerId].maxAmount;\r\n            if(minimum_Amount>=1 && maximum_Amount<5){\r\n                layerA.addRelayer(_relayerId,_name,_relayer);\r\n                emit RelayerRouted(_relayerId);\r\n            }else if(minimum_Amount>=5 && maximum_Amount<10){\r\n                layerB.addRelayer(_relayerId,_name,_relayer);\r\n                emit RelayerRouted(_relayerId);\r\n\r\n            }else if(minimum_Amount>=10 && maximum_Amount<15){\r\n                layerC.addRelayer(_relayerId,_name,_relayer);\r\n                emit RelayerRouted(_relayerId);\r\n\r\n            }\r\n\r\n\r\n    }\r\n\r\n\r\n\r\n    // routing the bids \r\n    // firstly adding the bids in the map\r\n\r\n\r\n      \r\n\r\n    function addBid(string memory _id, address _sender, address _receiver, uint256 _amount, bool _locked,bool _bought) external {\r\n        if(_amount>=1 && _amount<5){\r\n            layerA.addBid(_sender,_receiver,_amount,_locked,_bought,_id);\r\n            emit BidRouted(_id);\r\n        }\r\n        else if(_amount>=5 && _amount<10){\r\n            layerB.addBid(_sender,_receiver, _amount,_locked,_bought,_id);\r\n            emit BidRouted(_id);\r\n\r\n        }\r\n        else if(_amount>=10 && _amount<15){\r\n            layerC.addBid(_sender,_receiver, _amount,_locked,_bought,_id);\r\n            emit BidRouted(_id);\r\n\r\n        }\r\n    }\r\n\r\n\r\n\r\n}",
  "sourcePath": "D:\\Interoperability\\contracts\\Router.sol",
  "compiler": {
    "name": "solc",
    "version": "0.8.10+commit.fc410830.Emscripten.clang"
  },
  "schemaVersion": "3.4.16",
  "updatedAt": "2024-08-14T01:17:31.066Z",
  "networkType": "ethereum",
  "devdoc": {
    "kind": "dev",
    "methods": {},
    "version": 1
  },
  "userdoc": {
    "kind": "user",
    "methods": {},
    "version": 1
  }
}